{
  "_format": "hh-sol-artifact-1",
  "contractName": "MahjongDAOAirdrop",
  "sourceName": "contracts/MahjongDAOAirdrop.sol",
  "abi": [
    {
      "inputs": [
        {
          "internalType": "contract IERC1155ERC20",
          "name": "_token",
          "type": "address"
        }
      ],
      "stateMutability": "nonpayable",
      "type": "constructor"
    },
    {
      "anonymous": false,
      "inputs": [
        {
          "indexed": false,
          "internalType": "address",
          "name": "checker",
          "type": "address"
        }
      ],
      "name": "AirdropChecker",
      "type": "event"
    },
    {
      "anonymous": false,
      "inputs": [
        {
          "indexed": false,
          "internalType": "address",
          "name": "operator",
          "type": "address"
        },
        {
          "indexed": false,
          "internalType": "address",
          "name": "from",
          "type": "address"
        },
        {
          "indexed": false,
          "internalType": "uint256[]",
          "name": "ids",
          "type": "uint256[]"
        },
        {
          "indexed": false,
          "internalType": "uint256[]",
          "name": "values",
          "type": "uint256[]"
        },
        {
          "indexed": false,
          "internalType": "bytes",
          "name": "data",
          "type": "bytes"
        },
        {
          "indexed": false,
          "internalType": "uint256",
          "name": "gas",
          "type": "uint256"
        }
      ],
      "name": "BatchReceived",
      "type": "event"
    },
    {
      "anonymous": false,
      "inputs": [
        {
          "indexed": false,
          "internalType": "address",
          "name": "account",
          "type": "address"
        },
        {
          "indexed": false,
          "internalType": "uint256",
          "name": "id",
          "type": "uint256"
        },
        {
          "indexed": false,
          "internalType": "uint256",
          "name": "amount",
          "type": "uint256"
        }
      ],
      "name": "Claim",
      "type": "event"
    },
    {
      "anonymous": false,
      "inputs": [
        {
          "indexed": true,
          "internalType": "address",
          "name": "previousOwner",
          "type": "address"
        },
        {
          "indexed": true,
          "internalType": "address",
          "name": "newOwner",
          "type": "address"
        }
      ],
      "name": "OwnershipTransferred",
      "type": "event"
    },
    {
      "anonymous": false,
      "inputs": [
        {
          "indexed": false,
          "internalType": "address",
          "name": "operator",
          "type": "address"
        },
        {
          "indexed": false,
          "internalType": "address",
          "name": "from",
          "type": "address"
        },
        {
          "indexed": false,
          "internalType": "uint256",
          "name": "id",
          "type": "uint256"
        },
        {
          "indexed": false,
          "internalType": "uint256",
          "name": "value",
          "type": "uint256"
        },
        {
          "indexed": false,
          "internalType": "bytes",
          "name": "data",
          "type": "bytes"
        },
        {
          "indexed": false,
          "internalType": "uint256",
          "name": "gas",
          "type": "uint256"
        }
      ],
      "name": "Received",
      "type": "event"
    },
    {
      "inputs": [
        {
          "internalType": "uint256",
          "name": "id",
          "type": "uint256"
        }
      ],
      "name": "airdropAmount",
      "outputs": [
        {
          "internalType": "uint256",
          "name": "",
          "type": "uint256"
        }
      ],
      "stateMutability": "view",
      "type": "function"
    },
    {
      "inputs": [
        {
          "internalType": "uint256",
          "name": "",
          "type": "uint256"
        }
      ],
      "name": "airdrops",
      "outputs": [
        {
          "internalType": "uint256",
          "name": "",
          "type": "uint256"
        }
      ],
      "stateMutability": "view",
      "type": "function"
    },
    {
      "inputs": [
        {
          "internalType": "uint256",
          "name": "id",
          "type": "uint256"
        }
      ],
      "name": "claim",
      "outputs": [],
      "stateMutability": "nonpayable",
      "type": "function"
    },
    {
      "inputs": [
        {
          "internalType": "address",
          "name": "operator",
          "type": "address"
        },
        {
          "internalType": "address",
          "name": "from",
          "type": "address"
        },
        {
          "internalType": "uint256[]",
          "name": "ids",
          "type": "uint256[]"
        },
        {
          "internalType": "uint256[]",
          "name": "values",
          "type": "uint256[]"
        },
        {
          "internalType": "bytes",
          "name": "data",
          "type": "bytes"
        }
      ],
      "name": "onERC1155BatchReceived",
      "outputs": [
        {
          "internalType": "bytes4",
          "name": "",
          "type": "bytes4"
        }
      ],
      "stateMutability": "nonpayable",
      "type": "function"
    },
    {
      "inputs": [
        {
          "internalType": "address",
          "name": "operator",
          "type": "address"
        },
        {
          "internalType": "address",
          "name": "from",
          "type": "address"
        },
        {
          "internalType": "uint256",
          "name": "id",
          "type": "uint256"
        },
        {
          "internalType": "uint256",
          "name": "value",
          "type": "uint256"
        },
        {
          "internalType": "bytes",
          "name": "data",
          "type": "bytes"
        }
      ],
      "name": "onERC1155Received",
      "outputs": [
        {
          "internalType": "bytes4",
          "name": "",
          "type": "bytes4"
        }
      ],
      "stateMutability": "nonpayable",
      "type": "function"
    },
    {
      "inputs": [],
      "name": "owner",
      "outputs": [
        {
          "internalType": "address",
          "name": "",
          "type": "address"
        }
      ],
      "stateMutability": "view",
      "type": "function"
    },
    {
      "inputs": [],
      "name": "renounceOwnership",
      "outputs": [],
      "stateMutability": "nonpayable",
      "type": "function"
    },
    {
      "inputs": [
        {
          "internalType": "uint256",
          "name": "id",
          "type": "uint256"
        },
        {
          "internalType": "uint256",
          "name": "amount",
          "type": "uint256"
        }
      ],
      "name": "setAirdrop",
      "outputs": [],
      "stateMutability": "nonpayable",
      "type": "function"
    },
    {
      "inputs": [
        {
          "internalType": "contract IAirdropChecker",
          "name": "_checker",
          "type": "address"
        }
      ],
      "name": "setAirdropChecker",
      "outputs": [],
      "stateMutability": "nonpayable",
      "type": "function"
    },
    {
      "inputs": [
        {
          "internalType": "bytes4",
          "name": "interfaceId",
          "type": "bytes4"
        }
      ],
      "name": "supportsInterface",
      "outputs": [
        {
          "internalType": "bool",
          "name": "",
          "type": "bool"
        }
      ],
      "stateMutability": "view",
      "type": "function"
    },
    {
      "inputs": [
        {
          "internalType": "address",
          "name": "newOwner",
          "type": "address"
        }
      ],
      "name": "transferOwnership",
      "outputs": [],
      "stateMutability": "nonpayable",
      "type": "function"
    },
    {
      "inputs": [
        {
          "internalType": "uint256",
          "name": "id",
          "type": "uint256"
        },
        {
          "internalType": "uint256",
          "name": "amount",
          "type": "uint256"
        }
      ],
      "name": "withdraw",
      "outputs": [],
      "stateMutability": "nonpayable",
      "type": "function"
    }
  ],
  "bytecode": "0x60a060405234801561001057600080fd5b5060405161147038038061147083398101604081905261002f91610099565b61003833610049565b6001600160a01b03166080526100c9565b600080546001600160a01b038381166001600160a01b0319831681178455604051919092169283917f8be0079c531659141344cd1fd0a4f28419497f9722a3daafe3b4186f6b6457e09190a35050565b6000602082840312156100ab57600080fd5b81516001600160a01b03811681146100c257600080fd5b9392505050565b6080516113696101076000396000818161031c0152818161043c01528181610523015281816106950152818161077b015261095901526113696000f3fe608060405234801561001057600080fd5b50600436106100d45760003560e01c806391a2e72311610081578063e59cb5481161005b578063e59cb548146101f1578063f23a6e6114610204578063f2fde38b1461021757600080fd5b806391a2e72314610187578063a4d5a3a51461019a578063bc197c81146101ad57600080fd5b806360db5082116100b257806360db508214610129578063715018a6146101575780638da5cb5b1461015f57600080fd5b806301ffc9a7146100d9578063379607f514610101578063441a3e7014610116575b600080fd5b6100ec6100e7366004610f08565b61022a565b60405190151581526020015b60405180910390f35b61011461010f366004610f4a565b6102c3565b005b610114610124366004610f63565b6105da565b610149610137366004610f4a565b60026020526000908152604090205481565b6040519081526020016100f8565b6101146107f0565b60005460405173ffffffffffffffffffffffffffffffffffffffff90911681526020016100f8565b610114610195366004610f63565b61087d565b6101496101a8366004610f4a565b610910565b6101c06101bb366004611035565b610b81565b6040517fffffffff0000000000000000000000000000000000000000000000000000000090911681526020016100f8565b6101146101ff3660046110f4565b610bf8565b6101c0610212366004611111565b610cf2565b6101146102253660046110f4565b610d63565b60007fffffffff0000000000000000000000000000000000000000000000000000000082167f4e2312e00000000000000000000000000000000000000000000000000000000014806102bd57507f01ffc9a7000000000000000000000000000000000000000000000000000000007fffffffff000000000000000000000000000000000000000000000000000000008316145b92915050565b60006102ce82610910565b6040517efdd58e00000000000000000000000000000000000000000000000000000000815230600482015260248101849052909150819073ffffffffffffffffffffffffffffffffffffffff7f0000000000000000000000000000000000000000000000000000000000000000169062fdd58e9060440160206040518083038186803b15801561035d57600080fd5b505afa158015610371573d6000803e3d6000fd5b505050506040513d601f19601f82011682018060405250810190610395919061118d565b1015610402576040517f08c379a000000000000000000000000000000000000000000000000000000000815260206004820152601260248201527f696e73756666696369656e742066756e6473000000000000000000000000000060448201526064015b60405180910390fd5b816104d3576040517fa9059cbb000000000000000000000000000000000000000000000000000000008152336004820152602481018290527f000000000000000000000000000000000000000000000000000000000000000073ffffffffffffffffffffffffffffffffffffffff169063a9059cbb90604401602060405180830381600087803b15801561049557600080fd5b505af11580156104a9573d6000803e3d6000fd5b505050506040513d601f19601f820116820180604052508101906104cd91906111a6565b50610595565b6040517ff242432a000000000000000000000000000000000000000000000000000000008152306004820152336024820152604481018390526064810182905260a06084820152600060a48201527f000000000000000000000000000000000000000000000000000000000000000073ffffffffffffffffffffffffffffffffffffffff169063f242432a9060c401600060405180830381600087803b15801561057c57600080fd5b505af1158015610590573d6000803e3d6000fd5b505050505b60408051338152602081018490529081018290527f34fcbac0073d7c3d388e51312faf357774904998eeb8fca628b9e6f65ee1cbf79060600160405180910390a15050565b60005473ffffffffffffffffffffffffffffffffffffffff16331461065b576040517f08c379a000000000000000000000000000000000000000000000000000000000815260206004820181905260248201527f4f776e61626c653a2063616c6c6572206973206e6f7420746865206f776e657260448201526064016103f9565b8161072b576040517fa9059cbb000000000000000000000000000000000000000000000000000000008152336004820152602481018290527f000000000000000000000000000000000000000000000000000000000000000073ffffffffffffffffffffffffffffffffffffffff169063a9059cbb90604401602060405180830381600087803b1580156106ee57600080fd5b505af1158015610702573d6000803e3d6000fd5b505050506040513d601f19601f8201168201806040525081019061072691906111a6565b505050565b6040517ff242432a000000000000000000000000000000000000000000000000000000008152306004820152336024820152604481018390526064810182905260a06084820152600060a48201527f000000000000000000000000000000000000000000000000000000000000000073ffffffffffffffffffffffffffffffffffffffff169063f242432a9060c401600060405180830381600087803b1580156107d457600080fd5b505af11580156107e8573d6000803e3d6000fd5b505050505050565b60005473ffffffffffffffffffffffffffffffffffffffff163314610871576040517f08c379a000000000000000000000000000000000000000000000000000000000815260206004820181905260248201527f4f776e61626c653a2063616c6c6572206973206e6f7420746865206f776e657260448201526064016103f9565b61087b6000610e93565b565b60005473ffffffffffffffffffffffffffffffffffffffff1633146108fe576040517f08c379a000000000000000000000000000000000000000000000000000000000815260206004820181905260248201527f4f776e61626c653a2063616c6c6572206973206e6f7420746865206f776e657260448201526064016103f9565b60009182526002602052604090912055565b6000818152600260205260408120548015610a53576040517efdd58e000000000000000000000000000000000000000000000000000000008152336004820152602481018490527f000000000000000000000000000000000000000000000000000000000000000073ffffffffffffffffffffffffffffffffffffffff169062fdd58e9060440160206040518083038186803b1580156109af57600080fd5b505afa1580156109c3573d6000803e3d6000fd5b505050506040513d601f19601f820116820180604052508101906109e7919061118d565b15610a4e576040517f08c379a000000000000000000000000000000000000000000000000000000000815260206004820152601160248201527f636f6e646974696f6e206e6f74206d657400000000000000000000000000000060448201526064016103f9565b6102bd565b60015473ffffffffffffffffffffffffffffffffffffffff16610ad2576040517f08c379a000000000000000000000000000000000000000000000000000000000815260206004820152601260248201527f61697264726f70206e6f7420657869737473000000000000000000000000000060448201526064016103f9565b6001546040517fdc307b630000000000000000000000000000000000000000000000000000000081523360048201526024810185905273ffffffffffffffffffffffffffffffffffffffff9091169063dc307b639060440160206040518083038186803b158015610b4257600080fd5b505afa158015610b56573d6000803e3d6000fd5b505050506040513d601f19601f82011682018060405250810190610b7a919061118d565b9392505050565b60007f0bcad9224ba33b574e9c85298de2f44b4c80015a21aa5df474896444909863d889898989898989895a604051610bc299989796959493929190611260565b60405180910390a1507fbc197c810000000000000000000000000000000000000000000000000000000098975050505050505050565b60005473ffffffffffffffffffffffffffffffffffffffff163314610c79576040517f08c379a000000000000000000000000000000000000000000000000000000000815260206004820181905260248201527f4f776e61626c653a2063616c6c6572206973206e6f7420746865206f776e657260448201526064016103f9565b600180547fffffffffffffffffffffffff00000000000000000000000000000000000000001673ffffffffffffffffffffffffffffffffffffffff83169081179091556040519081527fc1a0414be4e2f62d06c1b07d0a5836b3f78921d9caa8ddb589eb8cc8a2071c8e9060200160405180910390a150565b60007f20dfa9f79060c8c4d7fe892c97c71bcf6e3b63d1dcf66fea7aefc0211628cf298787878787875a604051610d2f97969594939291906112d9565b60405180910390a1507ff23a6e61000000000000000000000000000000000000000000000000000000009695505050505050565b60005473ffffffffffffffffffffffffffffffffffffffff163314610de4576040517f08c379a000000000000000000000000000000000000000000000000000000000815260206004820181905260248201527f4f776e61626c653a2063616c6c6572206973206e6f7420746865206f776e657260448201526064016103f9565b73ffffffffffffffffffffffffffffffffffffffff8116610e87576040517f08c379a000000000000000000000000000000000000000000000000000000000815260206004820152602660248201527f4f776e61626c653a206e6577206f776e657220697320746865207a65726f206160448201527f646472657373000000000000000000000000000000000000000000000000000060648201526084016103f9565b610e9081610e93565b50565b6000805473ffffffffffffffffffffffffffffffffffffffff8381167fffffffffffffffffffffffff0000000000000000000000000000000000000000831681178455604051919092169283917f8be0079c531659141344cd1fd0a4f28419497f9722a3daafe3b4186f6b6457e09190a35050565b600060208284031215610f1a57600080fd5b81357fffffffff0000000000000000000000000000000000000000000000000000000081168114610b7a57600080fd5b600060208284031215610f5c57600080fd5b5035919050565b60008060408385031215610f7657600080fd5b50508035926020909101359150565b73ffffffffffffffffffffffffffffffffffffffff81168114610e9057600080fd5b60008083601f840112610fb957600080fd5b50813567ffffffffffffffff811115610fd157600080fd5b6020830191508360208260051b8501011115610fec57600080fd5b9250929050565b60008083601f84011261100557600080fd5b50813567ffffffffffffffff81111561101d57600080fd5b602083019150836020828501011115610fec57600080fd5b60008060008060008060008060a0898b03121561105157600080fd5b883561105c81610f85565b9750602089013561106c81610f85565b9650604089013567ffffffffffffffff8082111561108957600080fd5b6110958c838d01610fa7565b909850965060608b01359150808211156110ae57600080fd5b6110ba8c838d01610fa7565b909650945060808b01359150808211156110d357600080fd5b506110e08b828c01610ff3565b999c989b5096995094979396929594505050565b60006020828403121561110657600080fd5b8135610b7a81610f85565b60008060008060008060a0878903121561112a57600080fd5b863561113581610f85565b9550602087013561114581610f85565b94506040870135935060608701359250608087013567ffffffffffffffff81111561116f57600080fd5b61117b89828a01610ff3565b979a9699509497509295939492505050565b60006020828403121561119f57600080fd5b5051919050565b6000602082840312156111b857600080fd5b81518015158114610b7a57600080fd5b81835260007f07ffffffffffffffffffffffffffffffffffffffffffffffffffffffffffffff8311156111fa57600080fd5b8260051b8083602087013760009401602001938452509192915050565b8183528181602085013750600060208284010152600060207fffffffffffffffffffffffffffffffffffffffffffffffffffffffffffffffe0601f840116840101905092915050565b600073ffffffffffffffffffffffffffffffffffffffff808c168352808b1660208401525060c0604083015261129a60c08301898b6111c8565b82810360608401526112ad81888a6111c8565b905082810360808401526112c2818688611217565b9150508260a08301529a9950505050505050505050565b600073ffffffffffffffffffffffffffffffffffffffff808a16835280891660208401525086604083015285606083015260c0608083015261131f60c083018587611217565b90508260a08301529897505050505050505056fea2646970667358221220561a2e291bce9988ceee4d46e2c310aa709c2d18106568614669b6f1601e55ce64736f6c63430008090033",
  "linkReferences": {},
  "deployedLinkReferences": {}
}