{
  "_format": "hh-sol-artifact-1",
  "contractName": "MahjongDAOAirdrop",
  "sourceName": "contracts/MahjongDAOAirdrop.sol",
  "abi": [
    {
      "inputs": [
        {
          "internalType": "contract IERC1155ERC20",
          "name": "_token",
          "type": "address"
        }
      ],
      "stateMutability": "nonpayable",
      "type": "constructor"
    },
    {
      "anonymous": false,
      "inputs": [
        {
          "indexed": false,
          "internalType": "address",
          "name": "checker",
          "type": "address"
        }
      ],
      "name": "AirdropChecker",
      "type": "event"
    },
    {
      "anonymous": false,
      "inputs": [
        {
          "indexed": false,
          "internalType": "address",
          "name": "operator",
          "type": "address"
        },
        {
          "indexed": false,
          "internalType": "address",
          "name": "from",
          "type": "address"
        },
        {
          "indexed": false,
          "internalType": "uint256[]",
          "name": "ids",
          "type": "uint256[]"
        },
        {
          "indexed": false,
          "internalType": "uint256[]",
          "name": "values",
          "type": "uint256[]"
        },
        {
          "indexed": false,
          "internalType": "bytes",
          "name": "data",
          "type": "bytes"
        },
        {
          "indexed": false,
          "internalType": "uint256",
          "name": "gas",
          "type": "uint256"
        }
      ],
      "name": "BatchReceived",
      "type": "event"
    },
    {
      "anonymous": false,
      "inputs": [
        {
          "indexed": false,
          "internalType": "address",
          "name": "account",
          "type": "address"
        },
        {
          "indexed": false,
          "internalType": "uint256",
          "name": "id",
          "type": "uint256"
        },
        {
          "indexed": false,
          "internalType": "uint256",
          "name": "amount",
          "type": "uint256"
        }
      ],
      "name": "Claim",
      "type": "event"
    },
    {
      "anonymous": false,
      "inputs": [
        {
          "indexed": true,
          "internalType": "address",
          "name": "previousOwner",
          "type": "address"
        },
        {
          "indexed": true,
          "internalType": "address",
          "name": "newOwner",
          "type": "address"
        }
      ],
      "name": "OwnershipTransferred",
      "type": "event"
    },
    {
      "anonymous": false,
      "inputs": [
        {
          "indexed": false,
          "internalType": "address",
          "name": "operator",
          "type": "address"
        },
        {
          "indexed": false,
          "internalType": "address",
          "name": "from",
          "type": "address"
        },
        {
          "indexed": false,
          "internalType": "uint256",
          "name": "id",
          "type": "uint256"
        },
        {
          "indexed": false,
          "internalType": "uint256",
          "name": "value",
          "type": "uint256"
        },
        {
          "indexed": false,
          "internalType": "bytes",
          "name": "data",
          "type": "bytes"
        },
        {
          "indexed": false,
          "internalType": "uint256",
          "name": "gas",
          "type": "uint256"
        }
      ],
      "name": "Received",
      "type": "event"
    },
    {
      "inputs": [
        {
          "internalType": "uint256",
          "name": "id",
          "type": "uint256"
        }
      ],
      "name": "airdropAmount",
      "outputs": [
        {
          "internalType": "uint256",
          "name": "",
          "type": "uint256"
        }
      ],
      "stateMutability": "view",
      "type": "function"
    },
    {
      "inputs": [
        {
          "internalType": "uint256",
          "name": "",
          "type": "uint256"
        }
      ],
      "name": "airdrops",
      "outputs": [
        {
          "internalType": "uint256",
          "name": "",
          "type": "uint256"
        }
      ],
      "stateMutability": "view",
      "type": "function"
    },
    {
      "inputs": [
        {
          "internalType": "uint256",
          "name": "id",
          "type": "uint256"
        }
      ],
      "name": "claim",
      "outputs": [],
      "stateMutability": "nonpayable",
      "type": "function"
    },
    {
      "inputs": [
        {
          "internalType": "address",
          "name": "operator",
          "type": "address"
        },
        {
          "internalType": "address",
          "name": "from",
          "type": "address"
        },
        {
          "internalType": "uint256[]",
          "name": "ids",
          "type": "uint256[]"
        },
        {
          "internalType": "uint256[]",
          "name": "values",
          "type": "uint256[]"
        },
        {
          "internalType": "bytes",
          "name": "data",
          "type": "bytes"
        }
      ],
      "name": "onERC1155BatchReceived",
      "outputs": [
        {
          "internalType": "bytes4",
          "name": "",
          "type": "bytes4"
        }
      ],
      "stateMutability": "nonpayable",
      "type": "function"
    },
    {
      "inputs": [
        {
          "internalType": "address",
          "name": "operator",
          "type": "address"
        },
        {
          "internalType": "address",
          "name": "from",
          "type": "address"
        },
        {
          "internalType": "uint256",
          "name": "id",
          "type": "uint256"
        },
        {
          "internalType": "uint256",
          "name": "value",
          "type": "uint256"
        },
        {
          "internalType": "bytes",
          "name": "data",
          "type": "bytes"
        }
      ],
      "name": "onERC1155Received",
      "outputs": [
        {
          "internalType": "bytes4",
          "name": "",
          "type": "bytes4"
        }
      ],
      "stateMutability": "nonpayable",
      "type": "function"
    },
    {
      "inputs": [],
      "name": "owner",
      "outputs": [
        {
          "internalType": "address",
          "name": "",
          "type": "address"
        }
      ],
      "stateMutability": "view",
      "type": "function"
    },
    {
      "inputs": [],
      "name": "renounceOwnership",
      "outputs": [],
      "stateMutability": "nonpayable",
      "type": "function"
    },
    {
      "inputs": [
        {
          "internalType": "uint256",
          "name": "id",
          "type": "uint256"
        },
        {
          "internalType": "uint256",
          "name": "amount",
          "type": "uint256"
        }
      ],
      "name": "setAirdrop",
      "outputs": [],
      "stateMutability": "nonpayable",
      "type": "function"
    },
    {
      "inputs": [
        {
          "internalType": "contract IAirdropChecker",
          "name": "_checker",
          "type": "address"
        }
      ],
      "name": "setAirdropChecker",
      "outputs": [],
      "stateMutability": "nonpayable",
      "type": "function"
    },
    {
      "inputs": [
        {
          "internalType": "bytes4",
          "name": "interfaceId",
          "type": "bytes4"
        }
      ],
      "name": "supportsInterface",
      "outputs": [
        {
          "internalType": "bool",
          "name": "",
          "type": "bool"
        }
      ],
      "stateMutability": "view",
      "type": "function"
    },
    {
      "inputs": [
        {
          "internalType": "address",
          "name": "newOwner",
          "type": "address"
        }
      ],
      "name": "transferOwnership",
      "outputs": [],
      "stateMutability": "nonpayable",
      "type": "function"
    },
    {
      "inputs": [
        {
          "internalType": "uint256",
          "name": "id",
          "type": "uint256"
        },
        {
          "internalType": "uint256",
          "name": "amount",
          "type": "uint256"
        }
      ],
      "name": "withdraw",
      "outputs": [],
      "stateMutability": "nonpayable",
      "type": "function"
    }
  ],
  "bytecode": "0x60a060405234801561001057600080fd5b5060405161147c38038061147c83398101604081905261002f91610099565b61003833610049565b6001600160a01b03166080526100c9565b600080546001600160a01b038381166001600160a01b0319831681178455604051919092169283917f8be0079c531659141344cd1fd0a4f28419497f9722a3daafe3b4186f6b6457e09190a35050565b6000602082840312156100ab57600080fd5b81516001600160a01b03811681146100c257600080fd5b9392505050565b6080516113756101076000396000818161031c0152818161044201528181610529015281816106a101528181610787015261096501526113756000f3fe608060405234801561001057600080fd5b50600436106100d45760003560e01c806391a2e72311610081578063e59cb5481161005b578063e59cb548146101f1578063f23a6e6114610204578063f2fde38b1461021757600080fd5b806391a2e72314610187578063a4d5a3a51461019a578063bc197c81146101ad57600080fd5b806360db5082116100b257806360db508214610129578063715018a6146101575780638da5cb5b1461015f57600080fd5b806301ffc9a7146100d9578063379607f514610101578063441a3e7014610116575b600080fd5b6100ec6100e7366004610f14565b61022a565b60405190151581526020015b60405180910390f35b61011461010f366004610f56565b6102c3565b005b610114610124366004610f6f565b6105e0565b610149610137366004610f56565b60026020526000908152604090205481565b6040519081526020016100f8565b6101146107fc565b60005460405173ffffffffffffffffffffffffffffffffffffffff90911681526020016100f8565b610114610195366004610f6f565b610889565b6101496101a8366004610f56565b61091c565b6101c06101bb366004611041565b610b8d565b6040517fffffffff0000000000000000000000000000000000000000000000000000000090911681526020016100f8565b6101146101ff366004611100565b610c04565b6101c061021236600461111d565b610cfe565b610114610225366004611100565b610d6f565b60007fffffffff0000000000000000000000000000000000000000000000000000000082167f4e2312e00000000000000000000000000000000000000000000000000000000014806102bd57507f01ffc9a7000000000000000000000000000000000000000000000000000000007fffffffff000000000000000000000000000000000000000000000000000000008316145b92915050565b60006102ce8261091c565b6040517efdd58e00000000000000000000000000000000000000000000000000000000815230600482015260248101849052909150819073ffffffffffffffffffffffffffffffffffffffff7f0000000000000000000000000000000000000000000000000000000000000000169062fdd58e9060440160206040518083038186803b15801561035d57600080fd5b505afa158015610371573d6000803e3d6000fd5b505050506040513d601f19601f820116820180604052508101906103959190611199565b1015610402576040517f08c379a000000000000000000000000000000000000000000000000000000000815260206004820152601260248201527f696e73756666696369656e742066756e6473000000000000000000000000000060448201526064015b60405180910390fd5b816104d9576040517f23b872dd000000000000000000000000000000000000000000000000000000008152306004820152336024820152604481018290527f000000000000000000000000000000000000000000000000000000000000000073ffffffffffffffffffffffffffffffffffffffff16906323b872dd90606401602060405180830381600087803b15801561049b57600080fd5b505af11580156104af573d6000803e3d6000fd5b505050506040513d601f19601f820116820180604052508101906104d391906111b2565b5061059b565b6040517ff242432a000000000000000000000000000000000000000000000000000000008152306004820152336024820152604481018390526064810182905260a06084820152600060a48201527f000000000000000000000000000000000000000000000000000000000000000073ffffffffffffffffffffffffffffffffffffffff169063f242432a9060c401600060405180830381600087803b15801561058257600080fd5b505af1158015610596573d6000803e3d6000fd5b505050505b60408051338152602081018490529081018290527f34fcbac0073d7c3d388e51312faf357774904998eeb8fca628b9e6f65ee1cbf79060600160405180910390a15050565b60005473ffffffffffffffffffffffffffffffffffffffff163314610661576040517f08c379a000000000000000000000000000000000000000000000000000000000815260206004820181905260248201527f4f776e61626c653a2063616c6c6572206973206e6f7420746865206f776e657260448201526064016103f9565b81610737576040517f23b872dd000000000000000000000000000000000000000000000000000000008152306004820152336024820152604481018290527f000000000000000000000000000000000000000000000000000000000000000073ffffffffffffffffffffffffffffffffffffffff16906323b872dd90606401602060405180830381600087803b1580156106fa57600080fd5b505af115801561070e573d6000803e3d6000fd5b505050506040513d601f19601f8201168201806040525081019061073291906111b2565b505050565b6040517ff242432a000000000000000000000000000000000000000000000000000000008152306004820152336024820152604481018390526064810182905260a06084820152600060a48201527f000000000000000000000000000000000000000000000000000000000000000073ffffffffffffffffffffffffffffffffffffffff169063f242432a9060c401600060405180830381600087803b1580156107e057600080fd5b505af11580156107f4573d6000803e3d6000fd5b505050505050565b60005473ffffffffffffffffffffffffffffffffffffffff16331461087d576040517f08c379a000000000000000000000000000000000000000000000000000000000815260206004820181905260248201527f4f776e61626c653a2063616c6c6572206973206e6f7420746865206f776e657260448201526064016103f9565b6108876000610e9f565b565b60005473ffffffffffffffffffffffffffffffffffffffff16331461090a576040517f08c379a000000000000000000000000000000000000000000000000000000000815260206004820181905260248201527f4f776e61626c653a2063616c6c6572206973206e6f7420746865206f776e657260448201526064016103f9565b60009182526002602052604090912055565b6000818152600260205260408120548015610a5f576040517efdd58e000000000000000000000000000000000000000000000000000000008152336004820152602481018490527f000000000000000000000000000000000000000000000000000000000000000073ffffffffffffffffffffffffffffffffffffffff169062fdd58e9060440160206040518083038186803b1580156109bb57600080fd5b505afa1580156109cf573d6000803e3d6000fd5b505050506040513d601f19601f820116820180604052508101906109f39190611199565b15610a5a576040517f08c379a000000000000000000000000000000000000000000000000000000000815260206004820152601160248201527f636f6e646974696f6e206e6f74206d657400000000000000000000000000000060448201526064016103f9565b6102bd565b60015473ffffffffffffffffffffffffffffffffffffffff16610ade576040517f08c379a000000000000000000000000000000000000000000000000000000000815260206004820152601260248201527f61697264726f70206e6f7420657869737473000000000000000000000000000060448201526064016103f9565b6001546040517fdc307b630000000000000000000000000000000000000000000000000000000081523360048201526024810185905273ffffffffffffffffffffffffffffffffffffffff9091169063dc307b639060440160206040518083038186803b158015610b4e57600080fd5b505afa158015610b62573d6000803e3d6000fd5b505050506040513d601f19601f82011682018060405250810190610b869190611199565b9392505050565b60007f0bcad9224ba33b574e9c85298de2f44b4c80015a21aa5df474896444909863d889898989898989895a604051610bce9998979695949392919061126c565b60405180910390a1507fbc197c810000000000000000000000000000000000000000000000000000000098975050505050505050565b60005473ffffffffffffffffffffffffffffffffffffffff163314610c85576040517f08c379a000000000000000000000000000000000000000000000000000000000815260206004820181905260248201527f4f776e61626c653a2063616c6c6572206973206e6f7420746865206f776e657260448201526064016103f9565b600180547fffffffffffffffffffffffff00000000000000000000000000000000000000001673ffffffffffffffffffffffffffffffffffffffff83169081179091556040519081527fc1a0414be4e2f62d06c1b07d0a5836b3f78921d9caa8ddb589eb8cc8a2071c8e9060200160405180910390a150565b60007f20dfa9f79060c8c4d7fe892c97c71bcf6e3b63d1dcf66fea7aefc0211628cf298787878787875a604051610d3b97969594939291906112e5565b60405180910390a1507ff23a6e61000000000000000000000000000000000000000000000000000000009695505050505050565b60005473ffffffffffffffffffffffffffffffffffffffff163314610df0576040517f08c379a000000000000000000000000000000000000000000000000000000000815260206004820181905260248201527f4f776e61626c653a2063616c6c6572206973206e6f7420746865206f776e657260448201526064016103f9565b73ffffffffffffffffffffffffffffffffffffffff8116610e93576040517f08c379a000000000000000000000000000000000000000000000000000000000815260206004820152602660248201527f4f776e61626c653a206e6577206f776e657220697320746865207a65726f206160448201527f646472657373000000000000000000000000000000000000000000000000000060648201526084016103f9565b610e9c81610e9f565b50565b6000805473ffffffffffffffffffffffffffffffffffffffff8381167fffffffffffffffffffffffff0000000000000000000000000000000000000000831681178455604051919092169283917f8be0079c531659141344cd1fd0a4f28419497f9722a3daafe3b4186f6b6457e09190a35050565b600060208284031215610f2657600080fd5b81357fffffffff0000000000000000000000000000000000000000000000000000000081168114610b8657600080fd5b600060208284031215610f6857600080fd5b5035919050565b60008060408385031215610f8257600080fd5b50508035926020909101359150565b73ffffffffffffffffffffffffffffffffffffffff81168114610e9c57600080fd5b60008083601f840112610fc557600080fd5b50813567ffffffffffffffff811115610fdd57600080fd5b6020830191508360208260051b8501011115610ff857600080fd5b9250929050565b60008083601f84011261101157600080fd5b50813567ffffffffffffffff81111561102957600080fd5b602083019150836020828501011115610ff857600080fd5b60008060008060008060008060a0898b03121561105d57600080fd5b883561106881610f91565b9750602089013561107881610f91565b9650604089013567ffffffffffffffff8082111561109557600080fd5b6110a18c838d01610fb3565b909850965060608b01359150808211156110ba57600080fd5b6110c68c838d01610fb3565b909650945060808b01359150808211156110df57600080fd5b506110ec8b828c01610fff565b999c989b5096995094979396929594505050565b60006020828403121561111257600080fd5b8135610b8681610f91565b60008060008060008060a0878903121561113657600080fd5b863561114181610f91565b9550602087013561115181610f91565b94506040870135935060608701359250608087013567ffffffffffffffff81111561117b57600080fd5b61118789828a01610fff565b979a9699509497509295939492505050565b6000602082840312156111ab57600080fd5b5051919050565b6000602082840312156111c457600080fd5b81518015158114610b8657600080fd5b81835260007f07ffffffffffffffffffffffffffffffffffffffffffffffffffffffffffffff83111561120657600080fd5b8260051b8083602087013760009401602001938452509192915050565b8183528181602085013750600060208284010152600060207fffffffffffffffffffffffffffffffffffffffffffffffffffffffffffffffe0601f840116840101905092915050565b600073ffffffffffffffffffffffffffffffffffffffff808c168352808b1660208401525060c060408301526112a660c08301898b6111d4565b82810360608401526112b981888a6111d4565b905082810360808401526112ce818688611223565b9150508260a08301529a9950505050505050505050565b600073ffffffffffffffffffffffffffffffffffffffff808a16835280891660208401525086604083015285606083015260c0608083015261132b60c083018587611223565b90508260a08301529897505050505050505056fea2646970667358221220c692b9f82339c880b84d314215c5e1b1d3b45d7d92a42a2a87f0cc9c9f5c2c3e64736f6c63430008090033",
  "linkReferences": {},
  "deployedLinkReferences": {}
}