{
  "_format": "hh-sol-artifact-1",
  "contractName": "ERC1155ERC20",
  "sourceName": "contracts/ERC1155ERC20.sol",
  "abi": [
    {
      "inputs": [
        {
          "internalType": "string",
          "name": "name_",
          "type": "string"
        },
        {
          "internalType": "string",
          "name": "symbol_",
          "type": "string"
        },
        {
          "internalType": "string",
          "name": "uri_",
          "type": "string"
        }
      ],
      "stateMutability": "nonpayable",
      "type": "constructor"
    },
    {
      "anonymous": false,
      "inputs": [
        {
          "indexed": true,
          "internalType": "address",
          "name": "owner",
          "type": "address"
        },
        {
          "indexed": true,
          "internalType": "address",
          "name": "spender",
          "type": "address"
        },
        {
          "indexed": false,
          "internalType": "uint256",
          "name": "value",
          "type": "uint256"
        }
      ],
      "name": "Approval",
      "type": "event"
    },
    {
      "anonymous": false,
      "inputs": [
        {
          "indexed": true,
          "internalType": "address",
          "name": "account",
          "type": "address"
        },
        {
          "indexed": true,
          "internalType": "address",
          "name": "operator",
          "type": "address"
        },
        {
          "indexed": false,
          "internalType": "bool",
          "name": "approved",
          "type": "bool"
        }
      ],
      "name": "ApprovalForAll",
      "type": "event"
    },
    {
      "anonymous": false,
      "inputs": [
        {
          "indexed": true,
          "internalType": "address",
          "name": "from",
          "type": "address"
        },
        {
          "indexed": true,
          "internalType": "address",
          "name": "to",
          "type": "address"
        },
        {
          "indexed": false,
          "internalType": "uint256",
          "name": "value",
          "type": "uint256"
        }
      ],
      "name": "Transfer",
      "type": "event"
    },
    {
      "anonymous": false,
      "inputs": [
        {
          "indexed": true,
          "internalType": "address",
          "name": "operator",
          "type": "address"
        },
        {
          "indexed": true,
          "internalType": "address",
          "name": "from",
          "type": "address"
        },
        {
          "indexed": true,
          "internalType": "address",
          "name": "to",
          "type": "address"
        },
        {
          "indexed": false,
          "internalType": "uint256[]",
          "name": "ids",
          "type": "uint256[]"
        },
        {
          "indexed": false,
          "internalType": "uint256[]",
          "name": "values",
          "type": "uint256[]"
        }
      ],
      "name": "TransferBatch",
      "type": "event"
    },
    {
      "anonymous": false,
      "inputs": [
        {
          "indexed": true,
          "internalType": "address",
          "name": "operator",
          "type": "address"
        },
        {
          "indexed": true,
          "internalType": "address",
          "name": "from",
          "type": "address"
        },
        {
          "indexed": true,
          "internalType": "address",
          "name": "to",
          "type": "address"
        },
        {
          "indexed": false,
          "internalType": "uint256",
          "name": "id",
          "type": "uint256"
        },
        {
          "indexed": false,
          "internalType": "uint256",
          "name": "value",
          "type": "uint256"
        }
      ],
      "name": "TransferSingle",
      "type": "event"
    },
    {
      "anonymous": false,
      "inputs": [
        {
          "indexed": false,
          "internalType": "string",
          "name": "value",
          "type": "string"
        },
        {
          "indexed": true,
          "internalType": "uint256",
          "name": "id",
          "type": "uint256"
        }
      ],
      "name": "URI",
      "type": "event"
    },
    {
      "inputs": [
        {
          "internalType": "address",
          "name": "holder",
          "type": "address"
        },
        {
          "internalType": "address",
          "name": "spender",
          "type": "address"
        }
      ],
      "name": "allowance",
      "outputs": [
        {
          "internalType": "uint256",
          "name": "",
          "type": "uint256"
        }
      ],
      "stateMutability": "view",
      "type": "function"
    },
    {
      "inputs": [
        {
          "internalType": "address",
          "name": "spender",
          "type": "address"
        },
        {
          "internalType": "uint256",
          "name": "value",
          "type": "uint256"
        }
      ],
      "name": "approve",
      "outputs": [
        {
          "internalType": "bool",
          "name": "",
          "type": "bool"
        }
      ],
      "stateMutability": "nonpayable",
      "type": "function"
    },
    {
      "inputs": [
        {
          "internalType": "address",
          "name": "account",
          "type": "address"
        },
        {
          "internalType": "uint256",
          "name": "id",
          "type": "uint256"
        }
      ],
      "name": "balanceOf",
      "outputs": [
        {
          "internalType": "uint256",
          "name": "",
          "type": "uint256"
        }
      ],
      "stateMutability": "view",
      "type": "function"
    },
    {
      "inputs": [
        {
          "internalType": "address",
          "name": "account",
          "type": "address"
        }
      ],
      "name": "balanceOf",
      "outputs": [
        {
          "internalType": "uint256",
          "name": "",
          "type": "uint256"
        }
      ],
      "stateMutability": "view",
      "type": "function"
    },
    {
      "inputs": [
        {
          "internalType": "address[]",
          "name": "accounts",
          "type": "address[]"
        },
        {
          "internalType": "uint256[]",
          "name": "ids",
          "type": "uint256[]"
        }
      ],
      "name": "balanceOfBatch",
      "outputs": [
        {
          "internalType": "uint256[]",
          "name": "",
          "type": "uint256[]"
        }
      ],
      "stateMutability": "view",
      "type": "function"
    },
    {
      "inputs": [],
      "name": "decimals",
      "outputs": [
        {
          "internalType": "uint8",
          "name": "",
          "type": "uint8"
        }
      ],
      "stateMutability": "pure",
      "type": "function"
    },
    {
      "inputs": [],
      "name": "granularity",
      "outputs": [
        {
          "internalType": "uint256",
          "name": "",
          "type": "uint256"
        }
      ],
      "stateMutability": "pure",
      "type": "function"
    },
    {
      "inputs": [
        {
          "internalType": "address",
          "name": "account",
          "type": "address"
        },
        {
          "internalType": "address",
          "name": "operator",
          "type": "address"
        }
      ],
      "name": "isApprovedForAll",
      "outputs": [
        {
          "internalType": "bool",
          "name": "",
          "type": "bool"
        }
      ],
      "stateMutability": "view",
      "type": "function"
    },
    {
      "inputs": [],
      "name": "name",
      "outputs": [
        {
          "internalType": "string",
          "name": "",
          "type": "string"
        }
      ],
      "stateMutability": "view",
      "type": "function"
    },
    {
      "inputs": [
        {
          "internalType": "address",
          "name": "from",
          "type": "address"
        },
        {
          "internalType": "address",
          "name": "to",
          "type": "address"
        },
        {
          "internalType": "uint256[]",
          "name": "ids",
          "type": "uint256[]"
        },
        {
          "internalType": "uint256[]",
          "name": "amounts",
          "type": "uint256[]"
        },
        {
          "internalType": "bytes",
          "name": "data",
          "type": "bytes"
        }
      ],
      "name": "safeBatchTransferFrom",
      "outputs": [],
      "stateMutability": "nonpayable",
      "type": "function"
    },
    {
      "inputs": [
        {
          "internalType": "address",
          "name": "from",
          "type": "address"
        },
        {
          "internalType": "address",
          "name": "to",
          "type": "address"
        },
        {
          "internalType": "uint256",
          "name": "id",
          "type": "uint256"
        },
        {
          "internalType": "uint256",
          "name": "amount",
          "type": "uint256"
        },
        {
          "internalType": "bytes",
          "name": "data",
          "type": "bytes"
        }
      ],
      "name": "safeTransferFrom",
      "outputs": [],
      "stateMutability": "nonpayable",
      "type": "function"
    },
    {
      "inputs": [
        {
          "internalType": "address",
          "name": "operator",
          "type": "address"
        },
        {
          "internalType": "bool",
          "name": "approved",
          "type": "bool"
        }
      ],
      "name": "setApprovalForAll",
      "outputs": [],
      "stateMutability": "nonpayable",
      "type": "function"
    },
    {
      "inputs": [
        {
          "internalType": "bytes4",
          "name": "interfaceId",
          "type": "bytes4"
        }
      ],
      "name": "supportsInterface",
      "outputs": [
        {
          "internalType": "bool",
          "name": "",
          "type": "bool"
        }
      ],
      "stateMutability": "view",
      "type": "function"
    },
    {
      "inputs": [],
      "name": "symbol",
      "outputs": [
        {
          "internalType": "string",
          "name": "",
          "type": "string"
        }
      ],
      "stateMutability": "view",
      "type": "function"
    },
    {
      "inputs": [],
      "name": "totalSupply",
      "outputs": [
        {
          "internalType": "uint256",
          "name": "",
          "type": "uint256"
        }
      ],
      "stateMutability": "view",
      "type": "function"
    },
    {
      "inputs": [
        {
          "internalType": "uint256",
          "name": "id",
          "type": "uint256"
        }
      ],
      "name": "totalSupply",
      "outputs": [
        {
          "internalType": "uint256",
          "name": "",
          "type": "uint256"
        }
      ],
      "stateMutability": "view",
      "type": "function"
    },
    {
      "inputs": [
        {
          "internalType": "address",
          "name": "recipient",
          "type": "address"
        },
        {
          "internalType": "uint256",
          "name": "amount",
          "type": "uint256"
        }
      ],
      "name": "transfer",
      "outputs": [
        {
          "internalType": "bool",
          "name": "",
          "type": "bool"
        }
      ],
      "stateMutability": "nonpayable",
      "type": "function"
    },
    {
      "inputs": [
        {
          "internalType": "address",
          "name": "holder",
          "type": "address"
        },
        {
          "internalType": "address",
          "name": "recipient",
          "type": "address"
        },
        {
          "internalType": "uint256",
          "name": "amount",
          "type": "uint256"
        }
      ],
      "name": "transferFrom",
      "outputs": [
        {
          "internalType": "bool",
          "name": "",
          "type": "bool"
        }
      ],
      "stateMutability": "nonpayable",
      "type": "function"
    },
    {
      "inputs": [
        {
          "internalType": "uint256",
          "name": "",
          "type": "uint256"
        }
      ],
      "name": "uri",
      "outputs": [
        {
          "internalType": "string",
          "name": "",
          "type": "string"
        }
      ],
      "stateMutability": "view",
      "type": "function"
    }
  ],
  "bytecode": "0x60806040523480156200001157600080fd5b5060405162002227380380620022278339810160408190526200003491620001f2565b8251620000499060009060208601906200007f565b5081516200005f9060019060208501906200007f565b508051620000759060029060208401906200007f565b50505050620002c0565b8280546200008d9062000283565b90600052602060002090601f016020900481019282620000b15760008555620000fc565b82601f10620000cc57805160ff1916838001178555620000fc565b82800160010185558215620000fc579182015b82811115620000fc578251825591602001919060010190620000df565b506200010a9291506200010e565b5090565b5b808211156200010a57600081556001016200010f565b634e487b7160e01b600052604160045260246000fd5b600082601f8301126200014d57600080fd5b81516001600160401b03808211156200016a576200016a62000125565b604051601f8301601f19908116603f0116810190828211818310171562000195576200019562000125565b81604052838152602092508683858801011115620001b257600080fd5b600091505b83821015620001d65785820183015181830184015290820190620001b7565b83821115620001e85760008385830101525b9695505050505050565b6000806000606084860312156200020857600080fd5b83516001600160401b03808211156200022057600080fd5b6200022e878388016200013b565b945060208601519150808211156200024557600080fd5b62000253878388016200013b565b935060408601519150808211156200026a57600080fd5b5062000279868287016200013b565b9150509250925092565b600181811c908216806200029857607f821691505b60208210811415620002ba57634e487b7160e01b600052602260045260246000fd5b50919050565b611f5780620002d06000396000f3fe608060405234801561001057600080fd5b50600436106101505760003560e01c80634e1273f4116100cd578063a9059cbb11610081578063dd62ed3e11610066578063dd62ed3e146102f7578063e985e9c51461033d578063f242432a1461038657600080fd5b8063a9059cbb146102c4578063bd85b039146102d757600080fd5b806370a08231116100b257806370a082311461029657806395d89b41146102a9578063a22cb465146102b157600080fd5b80634e1273f41461026f578063556f0dc71461028f57600080fd5b80630e89341c1161012457806323b872dd1161010957806323b872dd146102385780632eb2c2d61461024b578063313ce5671461026057600080fd5b80630e89341c146101f557806318160ddd1461020857600080fd5b8062fdd58e1461015557806301ffc9a7146101aa57806306fdde03146101cd578063095ea7b3146101e2575b600080fd5b610197610163366004611784565b600090815260046020908152604080832073ffffffffffffffffffffffffffffffffffffffff949094168352929052205490565b6040519081526020015b60405180910390f35b6101bd6101b83660046117df565b610399565b60405190151581526020016101a1565b6101d561047e565b6040516101a1919061186e565b6101bd6101f0366004611784565b610510565b6101d5610203366004611881565b610526565b6000805260066020527f54cdd369e4e8a8515e52ca72ec816c2101831ad1f18bf44102ed171459c9b4f854610197565b6101bd61024636600461189a565b6105ba565b61025e610259366004611a71565b6107b2565b005b604051601281526020016101a1565b61028261027d366004611b1b565b610880565b6040516101a19190611c16565b6001610197565b6101976102a4366004611c29565b6109e1565b6101d5610a2b565b61025e6102bf366004611c44565b610a3a565b6101bd6102d2366004611784565b610bce565b6101976102e5366004611881565b60009081526006602052604090205490565b610197610305366004611c80565b73ffffffffffffffffffffffffffffffffffffffff918216600090815260036020908152604080832093909416825291909152205490565b6101bd61034b366004611c80565b73ffffffffffffffffffffffffffffffffffffffff918216600090815260056020908152604080832093909416825291909152205460ff1690565b61025e610394366004611cb3565b610c6a565b60007fffffffff0000000000000000000000000000000000000000000000000000000082167fd9b67a2600000000000000000000000000000000000000000000000000000000148061042c57507fffffffff0000000000000000000000000000000000000000000000000000000082167f0e89341c00000000000000000000000000000000000000000000000000000000145b8061047857507f01ffc9a7000000000000000000000000000000000000000000000000000000007fffffffff000000000000000000000000000000000000000000000000000000008316145b92915050565b60606000805461048d90611d18565b80601f01602080910402602001604051908101604052809291908181526020018280546104b990611d18565b80156105065780601f106104db57610100808354040283529160200191610506565b820191906000526020600020905b8154815290600101906020018083116104e957829003601f168201915b5050505050905090565b600061051d338484610d31565b50600192915050565b60606002805461053590611d18565b80601f016020809104026020016040519081016040528092919081815260200182805461056190611d18565b80156105ae5780601f10610583576101008083540402835291602001916105ae565b820191906000526020600020905b81548152906001019060200180831161059157829003601f168201915b50505050509050919050565b600073ffffffffffffffffffffffffffffffffffffffff831661063e576040517f08c379a000000000000000000000000000000000000000000000000000000000815260206004820152600960248201527f302061646472657373000000000000000000000000000000000000000000000060448201526064015b60405180910390fd5b73ffffffffffffffffffffffffffffffffffffffff84166106bb576040517f08c379a000000000000000000000000000000000000000000000000000000000815260206004820152600960248201527f30206164647265737300000000000000000000000000000000000000000000006044820152606401610635565b73ffffffffffffffffffffffffffffffffffffffff841660009081526003602090815260408083203384529091529020547fffffffffffffffffffffffffffffffffffffffffffffffffffffffffffffffff811461078a578281101561077d576040517f08c379a000000000000000000000000000000000000000000000000000000000815260206004820152601160248201527f6578636565647320616c6c6f77616e63650000000000000000000000000000006044820152606401610635565b61078a8533858403610d31565b6107a7858560008660405180602001604052806000815250610e99565b506001949350505050565b73ffffffffffffffffffffffffffffffffffffffff8516331480610806575073ffffffffffffffffffffffffffffffffffffffff8516600090815260056020908152604080832033845290915290205460ff165b61086c576040517f08c379a000000000000000000000000000000000000000000000000000000000815260206004820152600c60248201527f6e6f7420617070726f76656400000000000000000000000000000000000000006044820152606401610635565b61087985858585856110dc565b5050505050565b606081518351146108ed576040517f08c379a000000000000000000000000000000000000000000000000000000000815260206004820152600f60248201527f6c656e677468206d69736d6174636800000000000000000000000000000000006044820152606401610635565b6000835167ffffffffffffffff811115610909576109096118d6565b604051908082528060200260200182016040528015610932578160200160208202803683370190505b50905060005b84518110156109d9576109ac85828151811061095657610956611d6c565b602002602001015185838151811061097057610970611d6c565b6020026020010151600090815260046020908152604080832073ffffffffffffffffffffffffffffffffffffffff949094168352929052205490565b8282815181106109be576109be611d6c565b60209081029190910101526109d281611dca565b9050610938565b509392505050565b73ffffffffffffffffffffffffffffffffffffffff811660009081527f17ef568e3e12ab5b9c7254a8d58478811de00f9e6eb34345acd53bf8fd09d3ec6020526040812054610478565b60606001805461048d90611d18565b3373ffffffffffffffffffffffffffffffffffffffff83161415610aba576040517f08c379a000000000000000000000000000000000000000000000000000000000815260206004820152601160248201527f617070726f76616c20666f722073656c660000000000000000000000000000006044820152606401610635565b73ffffffffffffffffffffffffffffffffffffffff8216610b37576040517f08c379a000000000000000000000000000000000000000000000000000000000815260206004820152600e60248201527f617070726f76616c20666f7220300000000000000000000000000000000000006044820152606401610635565b33600081815260056020908152604080832073ffffffffffffffffffffffffffffffffffffffff87168085529083529281902080547fffffffffffffffffffffffffffffffffffffffffffffffffffffffffffffff001686151590811790915590519081529192917f17307eab39ab6107e8899845ad3d59bd9653f200f220920489ca2b5937696c31910160405180910390a35050565b600073ffffffffffffffffffffffffffffffffffffffff8316610c4d576040517f08c379a000000000000000000000000000000000000000000000000000000000815260206004820152600960248201527f30206164647265737300000000000000000000000000000000000000000000006044820152606401610635565b61051d338460008560405180602001604052806000815250610e99565b73ffffffffffffffffffffffffffffffffffffffff8516331480610cbe575073ffffffffffffffffffffffffffffffffffffffff8516600090815260056020908152604080832033845290915290205460ff165b610d24576040517f08c379a000000000000000000000000000000000000000000000000000000000815260206004820152600c60248201527f6e6f7420617070726f76656400000000000000000000000000000000000000006044820152606401610635565b6108798585858585610e99565b73ffffffffffffffffffffffffffffffffffffffff8316610dae576040517f08c379a000000000000000000000000000000000000000000000000000000000815260206004820152600960248201527f30206164647265737300000000000000000000000000000000000000000000006044820152606401610635565b73ffffffffffffffffffffffffffffffffffffffff8216610e2b576040517f08c379a000000000000000000000000000000000000000000000000000000000815260206004820152600960248201527f30206164647265737300000000000000000000000000000000000000000000006044820152606401610635565b73ffffffffffffffffffffffffffffffffffffffff83811660008181526003602090815260408083209487168084529482529182902085905590518481527f8c5be1e5ebec7d5bd14f71427d1e84f3dd0314c0f7b2291e5b200ac8c7c3b925910160405180910390a3505050565b73ffffffffffffffffffffffffffffffffffffffff8416610f16576040517f08c379a000000000000000000000000000000000000000000000000000000000815260206004820152600960248201527f30206164647265737300000000000000000000000000000000000000000000006044820152606401610635565b600083815260046020908152604080832073ffffffffffffffffffffffffffffffffffffffff8916845290915290205482811015610fb0576040517f08c379a000000000000000000000000000000000000000000000000000000000815260206004820152601460248201527f696e73756666696369656e742062616c616e63650000000000000000000000006044820152606401610635565b600084815260046020908152604080832073ffffffffffffffffffffffffffffffffffffffff8a8116855292528083208685039055908716825281208054859290610ffc908490611e03565b9091555050604080518581526020810185905273ffffffffffffffffffffffffffffffffffffffff808816929089169133917fc3d58168c5ae7397731d063d5bbf3d657854427343f4c083240f7aacaa2d0f62910160405180910390a4836110c6578473ffffffffffffffffffffffffffffffffffffffff168673ffffffffffffffffffffffffffffffffffffffff167fddf252ad1be2c89b69c2b068fc378daa952ba7f163c4a11628f55a4df523b3ef856040516110bd91815260200190565b60405180910390a35b6110d433878787878761139e565b505050505050565b8151835114611147576040517f08c379a000000000000000000000000000000000000000000000000000000000815260206004820152600f60248201527f6c656e677468206d69736d6174636800000000000000000000000000000000006044820152606401610635565b73ffffffffffffffffffffffffffffffffffffffff84166111c4576040517f08c379a000000000000000000000000000000000000000000000000000000000815260206004820152600960248201527f30206164647265737300000000000000000000000000000000000000000000006044820152606401610635565b60005b83518110156113115760008482815181106111e4576111e4611d6c565b60200260200101519050600084838151811061120257611202611d6c565b602090810291909101810151600084815260048352604080822073ffffffffffffffffffffffffffffffffffffffff8d1683529093529190912054909150818110156112aa576040517f08c379a000000000000000000000000000000000000000000000000000000000815260206004820152601460248201527f696e73756666696369656e742062616c616e63650000000000000000000000006044820152606401610635565b600083815260046020908152604080832073ffffffffffffffffffffffffffffffffffffffff8d8116855292528083208585039055908a168252812080548492906112f6908490611e03565b925050819055505050508061130a90611dca565b90506111c7565b508373ffffffffffffffffffffffffffffffffffffffff168573ffffffffffffffffffffffffffffffffffffffff163373ffffffffffffffffffffffffffffffffffffffff167f4a39dc06d4c0dbc64b70af90fd698a233a518aa5d07e595d983b8c0526c8f7fb8686604051611388929190611e1b565b60405180910390a4610879338686868686611581565b833b156110d4576040517ff23a6e6100000000000000000000000000000000000000000000000000000000815273ffffffffffffffffffffffffffffffffffffffff85169063f23a6e61906113ff9089908990889088908890600401611e49565b602060405180830381600087803b15801561141957600080fd5b505af1925050508015611467575060408051601f3d9081017fffffffffffffffffffffffffffffffffffffffffffffffffffffffffffffffe016820190925261146491810190611e99565b60015b6114cd576040517f08c379a000000000000000000000000000000000000000000000000000000000815260206004820152601360248201527f6e6f6e20455243313135355265636569766572000000000000000000000000006044820152606401610635565b7fffffffff0000000000000000000000000000000000000000000000000000000081167ff23a6e610000000000000000000000000000000000000000000000000000000014611578576040517f08c379a000000000000000000000000000000000000000000000000000000000815260206004820152601860248201527f4552433131353552656365697665722072656a656374656400000000000000006044820152606401610635565b50505050505050565b833b156110d4576040517fbc197c8100000000000000000000000000000000000000000000000000000000815273ffffffffffffffffffffffffffffffffffffffff85169063bc197c81906115e29089908990889088908890600401611eb6565b602060405180830381600087803b1580156115fc57600080fd5b505af192505050801561164a575060408051601f3d9081017fffffffffffffffffffffffffffffffffffffffffffffffffffffffffffffffe016820190925261164791810190611e99565b60015b6116b0576040517f08c379a000000000000000000000000000000000000000000000000000000000815260206004820152601360248201527f6e6f6e20455243313135355265636569766572000000000000000000000000006044820152606401610635565b7fffffffff0000000000000000000000000000000000000000000000000000000081167fbc197c810000000000000000000000000000000000000000000000000000000014611578576040517f08c379a000000000000000000000000000000000000000000000000000000000815260206004820152601860248201527f4552433131353552656365697665722072656a656374656400000000000000006044820152606401610635565b803573ffffffffffffffffffffffffffffffffffffffff8116811461177f57600080fd5b919050565b6000806040838503121561179757600080fd5b6117a08361175b565b946020939093013593505050565b7fffffffff00000000000000000000000000000000000000000000000000000000811681146117dc57600080fd5b50565b6000602082840312156117f157600080fd5b81356117fc816117ae565b9392505050565b6000815180845260005b818110156118295760208185018101518683018201520161180d565b8181111561183b576000602083870101525b50601f017fffffffffffffffffffffffffffffffffffffffffffffffffffffffffffffffe0169290920160200192915050565b6020815260006117fc6020830184611803565b60006020828403121561189357600080fd5b5035919050565b6000806000606084860312156118af57600080fd5b6118b88461175b565b92506118c66020850161175b565b9150604084013590509250925092565b7f4e487b7100000000000000000000000000000000000000000000000000000000600052604160045260246000fd5b604051601f82017fffffffffffffffffffffffffffffffffffffffffffffffffffffffffffffffe016810167ffffffffffffffff8111828210171561194c5761194c6118d6565b604052919050565b600067ffffffffffffffff82111561196e5761196e6118d6565b5060051b60200190565b600082601f83011261198957600080fd5b8135602061199e61199983611954565b611905565b82815260059290921b840181019181810190868411156119bd57600080fd5b8286015b848110156119d857803583529183019183016119c1565b509695505050505050565b600082601f8301126119f457600080fd5b813567ffffffffffffffff811115611a0e57611a0e6118d6565b611a3f60207fffffffffffffffffffffffffffffffffffffffffffffffffffffffffffffffe0601f84011601611905565b818152846020838601011115611a5457600080fd5b816020850160208301376000918101602001919091529392505050565b600080600080600060a08688031215611a8957600080fd5b611a928661175b565b9450611aa06020870161175b565b9350604086013567ffffffffffffffff80821115611abd57600080fd5b611ac989838a01611978565b94506060880135915080821115611adf57600080fd5b611aeb89838a01611978565b93506080880135915080821115611b0157600080fd5b50611b0e888289016119e3565b9150509295509295909350565b60008060408385031215611b2e57600080fd5b823567ffffffffffffffff80821115611b4657600080fd5b818501915085601f830112611b5a57600080fd5b81356020611b6a61199983611954565b82815260059290921b84018101918181019089841115611b8957600080fd5b948201945b83861015611bae57611b9f8661175b565b82529482019490820190611b8e565b96505086013592505080821115611bc457600080fd5b50611bd185828601611978565b9150509250929050565b600081518084526020808501945080840160005b83811015611c0b57815187529582019590820190600101611bef565b509495945050505050565b6020815260006117fc6020830184611bdb565b600060208284031215611c3b57600080fd5b6117fc8261175b565b60008060408385031215611c5757600080fd5b611c608361175b565b915060208301358015158114611c7557600080fd5b809150509250929050565b60008060408385031215611c9357600080fd5b611c9c8361175b565b9150611caa6020840161175b565b90509250929050565b600080600080600060a08688031215611ccb57600080fd5b611cd48661175b565b9450611ce26020870161175b565b93506040860135925060608601359150608086013567ffffffffffffffff811115611d0c57600080fd5b611b0e888289016119e3565b600181811c90821680611d2c57607f821691505b60208210811415611d66577f4e487b7100000000000000000000000000000000000000000000000000000000600052602260045260246000fd5b50919050565b7f4e487b7100000000000000000000000000000000000000000000000000000000600052603260045260246000fd5b7f4e487b7100000000000000000000000000000000000000000000000000000000600052601160045260246000fd5b60007fffffffffffffffffffffffffffffffffffffffffffffffffffffffffffffffff821415611dfc57611dfc611d9b565b5060010190565b60008219821115611e1657611e16611d9b565b500190565b604081526000611e2e6040830185611bdb565b8281036020840152611e408185611bdb565b95945050505050565b600073ffffffffffffffffffffffffffffffffffffffff808816835280871660208401525084604083015283606083015260a06080830152611e8e60a0830184611803565b979650505050505050565b600060208284031215611eab57600080fd5b81516117fc816117ae565b600073ffffffffffffffffffffffffffffffffffffffff808816835280871660208401525060a06040830152611eef60a0830186611bdb565b8281036060840152611f018186611bdb565b90508281036080840152611f158185611803565b9897505050505050505056fea2646970667358221220ba6e5aeaa0287e6dcb1630c9c288524e5080d851290ae50ec6483016713d5ae864736f6c63430008090033",
  "linkReferences": {},
  "deployedLinkReferences": {}
}