{
  "_format": "hh-sol-artifact-1",
  "contractName": "ERC1155ERC20",
  "sourceName": "contracts/ERC1155ERC20.sol",
  "abi": [
    {
      "inputs": [
        {
          "internalType": "string",
          "name": "name_",
          "type": "string"
        },
        {
          "internalType": "string",
          "name": "symbol_",
          "type": "string"
        },
        {
          "internalType": "string",
          "name": "uri_",
          "type": "string"
        }
      ],
      "stateMutability": "nonpayable",
      "type": "constructor"
    },
    {
      "anonymous": false,
      "inputs": [
        {
          "indexed": true,
          "internalType": "address",
          "name": "owner",
          "type": "address"
        },
        {
          "indexed": true,
          "internalType": "address",
          "name": "spender",
          "type": "address"
        },
        {
          "indexed": false,
          "internalType": "uint256",
          "name": "value",
          "type": "uint256"
        }
      ],
      "name": "Approval",
      "type": "event"
    },
    {
      "anonymous": false,
      "inputs": [
        {
          "indexed": true,
          "internalType": "address",
          "name": "account",
          "type": "address"
        },
        {
          "indexed": true,
          "internalType": "address",
          "name": "operator",
          "type": "address"
        },
        {
          "indexed": false,
          "internalType": "bool",
          "name": "approved",
          "type": "bool"
        }
      ],
      "name": "ApprovalForAll",
      "type": "event"
    },
    {
      "anonymous": false,
      "inputs": [
        {
          "indexed": true,
          "internalType": "address",
          "name": "from",
          "type": "address"
        },
        {
          "indexed": true,
          "internalType": "address",
          "name": "to",
          "type": "address"
        },
        {
          "indexed": false,
          "internalType": "uint256",
          "name": "value",
          "type": "uint256"
        }
      ],
      "name": "Transfer",
      "type": "event"
    },
    {
      "anonymous": false,
      "inputs": [
        {
          "indexed": true,
          "internalType": "address",
          "name": "operator",
          "type": "address"
        },
        {
          "indexed": true,
          "internalType": "address",
          "name": "from",
          "type": "address"
        },
        {
          "indexed": true,
          "internalType": "address",
          "name": "to",
          "type": "address"
        },
        {
          "indexed": false,
          "internalType": "uint256[]",
          "name": "ids",
          "type": "uint256[]"
        },
        {
          "indexed": false,
          "internalType": "uint256[]",
          "name": "values",
          "type": "uint256[]"
        }
      ],
      "name": "TransferBatch",
      "type": "event"
    },
    {
      "anonymous": false,
      "inputs": [
        {
          "indexed": true,
          "internalType": "address",
          "name": "operator",
          "type": "address"
        },
        {
          "indexed": true,
          "internalType": "address",
          "name": "from",
          "type": "address"
        },
        {
          "indexed": true,
          "internalType": "address",
          "name": "to",
          "type": "address"
        },
        {
          "indexed": false,
          "internalType": "uint256",
          "name": "id",
          "type": "uint256"
        },
        {
          "indexed": false,
          "internalType": "uint256",
          "name": "value",
          "type": "uint256"
        }
      ],
      "name": "TransferSingle",
      "type": "event"
    },
    {
      "anonymous": false,
      "inputs": [
        {
          "indexed": false,
          "internalType": "string",
          "name": "value",
          "type": "string"
        },
        {
          "indexed": true,
          "internalType": "uint256",
          "name": "id",
          "type": "uint256"
        }
      ],
      "name": "URI",
      "type": "event"
    },
    {
      "inputs": [
        {
          "internalType": "address",
          "name": "holder",
          "type": "address"
        },
        {
          "internalType": "address",
          "name": "spender",
          "type": "address"
        }
      ],
      "name": "allowance",
      "outputs": [
        {
          "internalType": "uint256",
          "name": "",
          "type": "uint256"
        }
      ],
      "stateMutability": "view",
      "type": "function"
    },
    {
      "inputs": [
        {
          "internalType": "address",
          "name": "spender",
          "type": "address"
        },
        {
          "internalType": "uint256",
          "name": "value",
          "type": "uint256"
        }
      ],
      "name": "approve",
      "outputs": [
        {
          "internalType": "bool",
          "name": "",
          "type": "bool"
        }
      ],
      "stateMutability": "nonpayable",
      "type": "function"
    },
    {
      "inputs": [
        {
          "internalType": "address",
          "name": "account",
          "type": "address"
        },
        {
          "internalType": "uint256",
          "name": "id",
          "type": "uint256"
        }
      ],
      "name": "balanceOf",
      "outputs": [
        {
          "internalType": "uint256",
          "name": "",
          "type": "uint256"
        }
      ],
      "stateMutability": "view",
      "type": "function"
    },
    {
      "inputs": [
        {
          "internalType": "address",
          "name": "account",
          "type": "address"
        }
      ],
      "name": "balanceOf",
      "outputs": [
        {
          "internalType": "uint256",
          "name": "",
          "type": "uint256"
        }
      ],
      "stateMutability": "view",
      "type": "function"
    },
    {
      "inputs": [
        {
          "internalType": "address[]",
          "name": "accounts",
          "type": "address[]"
        },
        {
          "internalType": "uint256[]",
          "name": "ids",
          "type": "uint256[]"
        }
      ],
      "name": "balanceOfBatch",
      "outputs": [
        {
          "internalType": "uint256[]",
          "name": "",
          "type": "uint256[]"
        }
      ],
      "stateMutability": "view",
      "type": "function"
    },
    {
      "inputs": [],
      "name": "decimals",
      "outputs": [
        {
          "internalType": "uint8",
          "name": "",
          "type": "uint8"
        }
      ],
      "stateMutability": "pure",
      "type": "function"
    },
    {
      "inputs": [],
      "name": "granularity",
      "outputs": [
        {
          "internalType": "uint256",
          "name": "",
          "type": "uint256"
        }
      ],
      "stateMutability": "pure",
      "type": "function"
    },
    {
      "inputs": [
        {
          "internalType": "address",
          "name": "account",
          "type": "address"
        },
        {
          "internalType": "address",
          "name": "operator",
          "type": "address"
        }
      ],
      "name": "isApprovedForAll",
      "outputs": [
        {
          "internalType": "bool",
          "name": "",
          "type": "bool"
        }
      ],
      "stateMutability": "view",
      "type": "function"
    },
    {
      "inputs": [
        {
          "internalType": "address",
          "name": "account",
          "type": "address"
        }
      ],
      "name": "isContract",
      "outputs": [
        {
          "internalType": "bool",
          "name": "",
          "type": "bool"
        }
      ],
      "stateMutability": "view",
      "type": "function"
    },
    {
      "inputs": [],
      "name": "name",
      "outputs": [
        {
          "internalType": "string",
          "name": "",
          "type": "string"
        }
      ],
      "stateMutability": "view",
      "type": "function"
    },
    {
      "inputs": [
        {
          "internalType": "address",
          "name": "from",
          "type": "address"
        },
        {
          "internalType": "address",
          "name": "to",
          "type": "address"
        },
        {
          "internalType": "uint256[]",
          "name": "ids",
          "type": "uint256[]"
        },
        {
          "internalType": "uint256[]",
          "name": "amounts",
          "type": "uint256[]"
        },
        {
          "internalType": "bytes",
          "name": "data",
          "type": "bytes"
        }
      ],
      "name": "safeBatchTransferFrom",
      "outputs": [],
      "stateMutability": "nonpayable",
      "type": "function"
    },
    {
      "inputs": [
        {
          "internalType": "address",
          "name": "from",
          "type": "address"
        },
        {
          "internalType": "address",
          "name": "to",
          "type": "address"
        },
        {
          "internalType": "uint256",
          "name": "id",
          "type": "uint256"
        },
        {
          "internalType": "uint256",
          "name": "amount",
          "type": "uint256"
        },
        {
          "internalType": "bytes",
          "name": "data",
          "type": "bytes"
        }
      ],
      "name": "safeTransferFrom",
      "outputs": [],
      "stateMutability": "nonpayable",
      "type": "function"
    },
    {
      "inputs": [
        {
          "internalType": "address",
          "name": "operator",
          "type": "address"
        },
        {
          "internalType": "bool",
          "name": "approved",
          "type": "bool"
        }
      ],
      "name": "setApprovalForAll",
      "outputs": [],
      "stateMutability": "nonpayable",
      "type": "function"
    },
    {
      "inputs": [
        {
          "internalType": "bytes4",
          "name": "interfaceId",
          "type": "bytes4"
        }
      ],
      "name": "supportsInterface",
      "outputs": [
        {
          "internalType": "bool",
          "name": "",
          "type": "bool"
        }
      ],
      "stateMutability": "view",
      "type": "function"
    },
    {
      "inputs": [],
      "name": "symbol",
      "outputs": [
        {
          "internalType": "string",
          "name": "",
          "type": "string"
        }
      ],
      "stateMutability": "view",
      "type": "function"
    },
    {
      "inputs": [],
      "name": "totalSupply",
      "outputs": [
        {
          "internalType": "uint256",
          "name": "",
          "type": "uint256"
        }
      ],
      "stateMutability": "view",
      "type": "function"
    },
    {
      "inputs": [
        {
          "internalType": "uint256",
          "name": "id",
          "type": "uint256"
        }
      ],
      "name": "totalSupply",
      "outputs": [
        {
          "internalType": "uint256",
          "name": "",
          "type": "uint256"
        }
      ],
      "stateMutability": "view",
      "type": "function"
    },
    {
      "inputs": [
        {
          "internalType": "address",
          "name": "recipient",
          "type": "address"
        },
        {
          "internalType": "uint256",
          "name": "amount",
          "type": "uint256"
        }
      ],
      "name": "transfer",
      "outputs": [
        {
          "internalType": "bool",
          "name": "",
          "type": "bool"
        }
      ],
      "stateMutability": "nonpayable",
      "type": "function"
    },
    {
      "inputs": [
        {
          "internalType": "address",
          "name": "holder",
          "type": "address"
        },
        {
          "internalType": "address",
          "name": "recipient",
          "type": "address"
        },
        {
          "internalType": "uint256",
          "name": "amount",
          "type": "uint256"
        }
      ],
      "name": "transferFrom",
      "outputs": [
        {
          "internalType": "bool",
          "name": "",
          "type": "bool"
        }
      ],
      "stateMutability": "nonpayable",
      "type": "function"
    },
    {
      "inputs": [
        {
          "internalType": "uint256",
          "name": "id",
          "type": "uint256"
        }
      ],
      "name": "uri",
      "outputs": [
        {
          "internalType": "string",
          "name": "",
          "type": "string"
        }
      ],
      "stateMutability": "view",
      "type": "function"
    }
  ],
  "bytecode": "0x60806040523480156200001157600080fd5b5060405162002126380380620021268339810160408190526200003491620001f2565b8251620000499060009060208601906200007f565b5081516200005f9060019060208501906200007f565b508051620000759060029060208401906200007f565b50505050620002c0565b8280546200008d9062000283565b90600052602060002090601f016020900481019282620000b15760008555620000fc565b82601f10620000cc57805160ff1916838001178555620000fc565b82800160010185558215620000fc579182015b82811115620000fc578251825591602001919060010190620000df565b506200010a9291506200010e565b5090565b5b808211156200010a57600081556001016200010f565b634e487b7160e01b600052604160045260246000fd5b600082601f8301126200014d57600080fd5b81516001600160401b03808211156200016a576200016a62000125565b604051601f8301601f19908116603f0116810190828211818310171562000195576200019562000125565b81604052838152602092508683858801011115620001b257600080fd5b600091505b83821015620001d65785820183015181830184015290820190620001b7565b83821115620001e85760008385830101525b9695505050505050565b6000806000606084860312156200020857600080fd5b83516001600160401b03808211156200022057600080fd5b6200022e878388016200013b565b945060208601519150808211156200024557600080fd5b62000253878388016200013b565b935060408601519150808211156200026a57600080fd5b5062000279868287016200013b565b9150509250925092565b600181811c908216806200029857607f821691505b60208210811415620002ba57634e487b7160e01b600052602260045260246000fd5b50919050565b611e5680620002d06000396000f3fe608060405234801561001057600080fd5b506004361061016b5760003560e01c80634e1273f4116100cd578063a9059cbb11610081578063dd62ed3e11610066578063dd62ed3e14610368578063e985e9c5146103ae578063f242432a146103f757600080fd5b8063a9059cbb14610335578063bd85b0391461034857600080fd5b806370a08231116100b257806370a08231146102c557806395d89b411461031a578063a22cb4651461032257600080fd5b80634e1273f41461029e578063556f0dc7146102be57600080fd5b8063162790551161012457806323b872dd1161010957806323b872dd146102675780632eb2c2d61461027a578063313ce5671461028f57600080fd5b8063162790551461022357806318160ddd1461023757600080fd5b806306fdde031161015557806306fdde03146101e8578063095ea7b3146101fd5780630e89341c1461021057600080fd5b8062fdd58e1461017057806301ffc9a7146101c5575b600080fd5b6101b261017e366004611683565b600090815260046020908152604080832073ffffffffffffffffffffffffffffffffffffffff949094168352929052205490565b6040519081526020015b60405180910390f35b6101d86101d33660046116de565b61040a565b60405190151581526020016101bc565b6101f06104ef565b6040516101bc919061176d565b6101d861020b366004611683565b610581565b6101f061021e366004611780565b610597565b6101d8610231366004611799565b3b151590565b6000805260066020527f54cdd369e4e8a8515e52ca72ec816c2101831ad1f18bf44102ed171459c9b4f8546101b2565b6101d86102753660046117b4565b610644565b61028d61028836600461198b565b61080c565b005b604051601281526020016101bc565b6102b16102ac366004611a35565b6108c0565b6040516101bc9190611b30565b60016101b2565b6101b26102d3366004611799565b73ffffffffffffffffffffffffffffffffffffffff1660009081527f17ef568e3e12ab5b9c7254a8d58478811de00f9e6eb34345acd53bf8fd09d3ec602052604090205490565b6101f0610a07565b61028d610330366004611b43565b610a16565b6101d8610343366004611683565b610b76565b6101b2610356366004611780565b60009081526006602052604090205490565b6101b2610376366004611b7f565b73ffffffffffffffffffffffffffffffffffffffff918216600090815260036020908152604080832093909416825291909152205490565b6101d86103bc366004611b7f565b73ffffffffffffffffffffffffffffffffffffffff918216600090815260056020908152604080832093909416825291909152205460ff1690565b61028d610405366004611bb2565b610bf8565b60007fffffffff0000000000000000000000000000000000000000000000000000000082167fd9b67a2600000000000000000000000000000000000000000000000000000000148061049d57507fffffffff0000000000000000000000000000000000000000000000000000000082167f0e89341c00000000000000000000000000000000000000000000000000000000145b806104e957507f01ffc9a7000000000000000000000000000000000000000000000000000000007fffffffff000000000000000000000000000000000000000000000000000000008316145b92915050565b6060600080546104fe90611c17565b80601f016020809104026020016040519081016040528092919081815260200182805461052a90611c17565b80156105775780601f1061054c57610100808354040283529160200191610577565b820191906000526020600020905b81548152906001019060200180831161055a57829003601f168201915b5050505050905090565b600061058e338484610cf7565b50600192915050565b6060816105b257505060408051602081019091526000815290565b600280546105bf90611c17565b80601f01602080910402602001604051908101604052809291908181526020018280546105eb90611c17565b80156106385780601f1061060d57610100808354040283529160200191610638565b820191906000526020600020905b81548152906001019060200180831161061b57829003601f168201915b50505050509050919050565b600073ffffffffffffffffffffffffffffffffffffffff83166106ae5760405162461bcd60e51b815260206004820152600960248201527f302061646472657373000000000000000000000000000000000000000000000060448201526064015b60405180910390fd5b73ffffffffffffffffffffffffffffffffffffffff84166107115760405162461bcd60e51b815260206004820152600960248201527f302061646472657373000000000000000000000000000000000000000000000060448201526064016106a5565b3373ffffffffffffffffffffffffffffffffffffffff8516146107e55773ffffffffffffffffffffffffffffffffffffffff841660009081526003602090815260408083203384529091529020547fffffffffffffffffffffffffffffffffffffffffffffffffffffffffffffffff81146107e357828110156107d65760405162461bcd60e51b815260206004820152601160248201527f6578636565647320616c6c6f77616e636500000000000000000000000000000060448201526064016106a5565b6107e38533858403610cf7565b505b610802848460008560405180602001604052806000815250610e2b565b5060019392505050565b73ffffffffffffffffffffffffffffffffffffffff8516331480610860575073ffffffffffffffffffffffffffffffffffffffff8516600090815260056020908152604080832033845290915290205460ff165b6108ac5760405162461bcd60e51b815260206004820152600c60248201527f6e6f7420617070726f766564000000000000000000000000000000000000000060448201526064016106a5565b6108b9858585858561103f565b5050505050565b606081518351146109135760405162461bcd60e51b815260206004820152600f60248201527f6c656e677468206d69736d61746368000000000000000000000000000000000060448201526064016106a5565b6000835167ffffffffffffffff81111561092f5761092f6117f0565b604051908082528060200260200182016040528015610958578160200160208202803683370190505b50905060005b84518110156109ff576109d285828151811061097c5761097c611c6b565b602002602001015185838151811061099657610996611c6b565b6020026020010151600090815260046020908152604080832073ffffffffffffffffffffffffffffffffffffffff949094168352929052205490565b8282815181106109e4576109e4611c6b565b60209081029190910101526109f881611cc9565b905061095e565b509392505050565b6060600180546104fe90611c17565b3373ffffffffffffffffffffffffffffffffffffffff83161415610a7c5760405162461bcd60e51b815260206004820152601160248201527f617070726f76616c20666f722073656c6600000000000000000000000000000060448201526064016106a5565b73ffffffffffffffffffffffffffffffffffffffff8216610adf5760405162461bcd60e51b815260206004820152600e60248201527f617070726f76616c20666f72203000000000000000000000000000000000000060448201526064016106a5565b33600081815260056020908152604080832073ffffffffffffffffffffffffffffffffffffffff87168085529083529281902080547fffffffffffffffffffffffffffffffffffffffffffffffffffffffffffffff001686151590811790915590519081529192917f17307eab39ab6107e8899845ad3d59bd9653f200f220920489ca2b5937696c31910160405180910390a35050565b600073ffffffffffffffffffffffffffffffffffffffff8316610bdb5760405162461bcd60e51b815260206004820152600960248201527f302061646472657373000000000000000000000000000000000000000000000060448201526064016106a5565b61058e338460008560405180602001604052806000815250610e2b565b60008311610c4a5760405162461bcd60e51b81526004016106a59060208082526004908201527f3020696400000000000000000000000000000000000000000000000000000000604082015260600190565b73ffffffffffffffffffffffffffffffffffffffff8516331480610c9e575073ffffffffffffffffffffffffffffffffffffffff8516600090815260056020908152604080832033845290915290205460ff165b610cea5760405162461bcd60e51b815260206004820152600c60248201527f6e6f7420617070726f766564000000000000000000000000000000000000000060448201526064016106a5565b6108b98585858585610e2b565b73ffffffffffffffffffffffffffffffffffffffff8316610d5a5760405162461bcd60e51b815260206004820152600960248201527f302061646472657373000000000000000000000000000000000000000000000060448201526064016106a5565b73ffffffffffffffffffffffffffffffffffffffff8216610dbd5760405162461bcd60e51b815260206004820152600960248201527f302061646472657373000000000000000000000000000000000000000000000060448201526064016106a5565b73ffffffffffffffffffffffffffffffffffffffff83811660008181526003602090815260408083209487168084529482529182902085905590518481527f8c5be1e5ebec7d5bd14f71427d1e84f3dd0314c0f7b2291e5b200ac8c7c3b925910160405180910390a3505050565b73ffffffffffffffffffffffffffffffffffffffff8416610e8e5760405162461bcd60e51b815260206004820152600960248201527f302061646472657373000000000000000000000000000000000000000000000060448201526064016106a5565b600083815260046020908152604080832073ffffffffffffffffffffffffffffffffffffffff8916845290915290205482811015610f0e5760405162461bcd60e51b815260206004820152601460248201527f696e73756666696369656e742062616c616e636500000000000000000000000060448201526064016106a5565b600084815260046020908152604080832073ffffffffffffffffffffffffffffffffffffffff8a8116855292528083208685039055908716825281208054859290610f5a908490611d02565b909155505083610fd1578473ffffffffffffffffffffffffffffffffffffffff168673ffffffffffffffffffffffffffffffffffffffff167fddf252ad1be2c89b69c2b068fc378daa952ba7f163c4a11628f55a4df523b3ef85604051610fc391815260200190565b60405180910390a3506108b9565b604080518581526020810185905273ffffffffffffffffffffffffffffffffffffffff808816929089169133917fc3d58168c5ae7397731d063d5bbf3d657854427343f4c083240f7aacaa2d0f62910160405180910390a4611037338787878787611305565b505050505050565b81518351146110905760405162461bcd60e51b815260206004820152600f60248201527f6c656e677468206d69736d61746368000000000000000000000000000000000060448201526064016106a5565b73ffffffffffffffffffffffffffffffffffffffff84166110f35760405162461bcd60e51b815260206004820152600960248201527f302061646472657373000000000000000000000000000000000000000000000060448201526064016106a5565b60005b835181101561127857600084828151811061111357611113611c6b565b602002602001015190506000811161116f5760405162461bcd60e51b81526004016106a59060208082526004908201527f3020696400000000000000000000000000000000000000000000000000000000604082015260600190565b600084838151811061118357611183611c6b565b602090810291909101810151600084815260048352604080822073ffffffffffffffffffffffffffffffffffffffff8d1683529093529190912054909150818110156112115760405162461bcd60e51b815260206004820152601460248201527f696e73756666696369656e742062616c616e636500000000000000000000000060448201526064016106a5565b600083815260046020908152604080832073ffffffffffffffffffffffffffffffffffffffff8d8116855292528083208585039055908a1682528120805484929061125d908490611d02565b925050819055505050508061127190611cc9565b90506110f6565b508373ffffffffffffffffffffffffffffffffffffffff168573ffffffffffffffffffffffffffffffffffffffff163373ffffffffffffffffffffffffffffffffffffffff167f4a39dc06d4c0dbc64b70af90fd698a233a518aa5d07e595d983b8c0526c8f7fb86866040516112ef929190611d1a565b60405180910390a46108b93386868686866114b4565b833b15611037576040517ff23a6e6100000000000000000000000000000000000000000000000000000000815273ffffffffffffffffffffffffffffffffffffffff85169063f23a6e61906113669089908990889088908890600401611d48565b602060405180830381600087803b15801561138057600080fd5b505af19250505080156113ce575060408051601f3d9081017fffffffffffffffffffffffffffffffffffffffffffffffffffffffffffffffe01682019092526113cb91810190611d98565b60015b61141a5760405162461bcd60e51b815260206004820152601360248201527f6e6f6e204552433131353552656365697665720000000000000000000000000060448201526064016106a5565b7fffffffff0000000000000000000000000000000000000000000000000000000081167ff23a6e6100000000000000000000000000000000000000000000000000000000146114ab5760405162461bcd60e51b815260206004820152601860248201527f4552433131353552656365697665722072656a6563746564000000000000000060448201526064016106a5565b50505050505050565b833b15611037576040517fbc197c8100000000000000000000000000000000000000000000000000000000815273ffffffffffffffffffffffffffffffffffffffff85169063bc197c81906115159089908990889088908890600401611db5565b602060405180830381600087803b15801561152f57600080fd5b505af192505050801561157d575060408051601f3d9081017fffffffffffffffffffffffffffffffffffffffffffffffffffffffffffffffe016820190925261157a91810190611d98565b60015b6115c95760405162461bcd60e51b815260206004820152601360248201527f6e6f6e204552433131353552656365697665720000000000000000000000000060448201526064016106a5565b7fffffffff0000000000000000000000000000000000000000000000000000000081167fbc197c8100000000000000000000000000000000000000000000000000000000146114ab5760405162461bcd60e51b815260206004820152601860248201527f4552433131353552656365697665722072656a6563746564000000000000000060448201526064016106a5565b803573ffffffffffffffffffffffffffffffffffffffff8116811461167e57600080fd5b919050565b6000806040838503121561169657600080fd5b61169f8361165a565b946020939093013593505050565b7fffffffff00000000000000000000000000000000000000000000000000000000811681146116db57600080fd5b50565b6000602082840312156116f057600080fd5b81356116fb816116ad565b9392505050565b6000815180845260005b818110156117285760208185018101518683018201520161170c565b8181111561173a576000602083870101525b50601f017fffffffffffffffffffffffffffffffffffffffffffffffffffffffffffffffe0169290920160200192915050565b6020815260006116fb6020830184611702565b60006020828403121561179257600080fd5b5035919050565b6000602082840312156117ab57600080fd5b6116fb8261165a565b6000806000606084860312156117c957600080fd5b6117d28461165a565b92506117e06020850161165a565b9150604084013590509250925092565b7f4e487b7100000000000000000000000000000000000000000000000000000000600052604160045260246000fd5b604051601f82017fffffffffffffffffffffffffffffffffffffffffffffffffffffffffffffffe016810167ffffffffffffffff81118282101715611866576118666117f0565b604052919050565b600067ffffffffffffffff821115611888576118886117f0565b5060051b60200190565b600082601f8301126118a357600080fd5b813560206118b86118b38361186e565b61181f565b82815260059290921b840181019181810190868411156118d757600080fd5b8286015b848110156118f257803583529183019183016118db565b509695505050505050565b600082601f83011261190e57600080fd5b813567ffffffffffffffff811115611928576119286117f0565b61195960207fffffffffffffffffffffffffffffffffffffffffffffffffffffffffffffffe0601f8401160161181f565b81815284602083860101111561196e57600080fd5b816020850160208301376000918101602001919091529392505050565b600080600080600060a086880312156119a357600080fd5b6119ac8661165a565b94506119ba6020870161165a565b9350604086013567ffffffffffffffff808211156119d757600080fd5b6119e389838a01611892565b945060608801359150808211156119f957600080fd5b611a0589838a01611892565b93506080880135915080821115611a1b57600080fd5b50611a28888289016118fd565b9150509295509295909350565b60008060408385031215611a4857600080fd5b823567ffffffffffffffff80821115611a6057600080fd5b818501915085601f830112611a7457600080fd5b81356020611a846118b38361186e565b82815260059290921b84018101918181019089841115611aa357600080fd5b948201945b83861015611ac857611ab98661165a565b82529482019490820190611aa8565b96505086013592505080821115611ade57600080fd5b50611aeb85828601611892565b9150509250929050565b600081518084526020808501945080840160005b83811015611b2557815187529582019590820190600101611b09565b509495945050505050565b6020815260006116fb6020830184611af5565b60008060408385031215611b5657600080fd5b611b5f8361165a565b915060208301358015158114611b7457600080fd5b809150509250929050565b60008060408385031215611b9257600080fd5b611b9b8361165a565b9150611ba96020840161165a565b90509250929050565b600080600080600060a08688031215611bca57600080fd5b611bd38661165a565b9450611be16020870161165a565b93506040860135925060608601359150608086013567ffffffffffffffff811115611c0b57600080fd5b611a28888289016118fd565b600181811c90821680611c2b57607f821691505b60208210811415611c65577f4e487b7100000000000000000000000000000000000000000000000000000000600052602260045260246000fd5b50919050565b7f4e487b7100000000000000000000000000000000000000000000000000000000600052603260045260246000fd5b7f4e487b7100000000000000000000000000000000000000000000000000000000600052601160045260246000fd5b60007fffffffffffffffffffffffffffffffffffffffffffffffffffffffffffffffff821415611cfb57611cfb611c9a565b5060010190565b60008219821115611d1557611d15611c9a565b500190565b604081526000611d2d6040830185611af5565b8281036020840152611d3f8185611af5565b95945050505050565b600073ffffffffffffffffffffffffffffffffffffffff808816835280871660208401525084604083015283606083015260a06080830152611d8d60a0830184611702565b979650505050505050565b600060208284031215611daa57600080fd5b81516116fb816116ad565b600073ffffffffffffffffffffffffffffffffffffffff808816835280871660208401525060a06040830152611dee60a0830186611af5565b8281036060840152611e008186611af5565b90508281036080840152611e148185611702565b9897505050505050505056fea26469706673582212200783e059a7b1063daa80eea77f45159a412cd0394e3069a00f7d88e87c87a13e64736f6c63430008090033",
  "linkReferences": {},
  "deployedLinkReferences": {}
}