{
  "_format": "hh-sol-artifact-1",
  "contractName": "MahjongDAO",
  "sourceName": "contracts/MahjongDAO.sol",
  "abi": [
    {
      "inputs": [],
      "stateMutability": "nonpayable",
      "type": "constructor"
    },
    {
      "anonymous": false,
      "inputs": [
        {
          "indexed": true,
          "internalType": "address",
          "name": "owner",
          "type": "address"
        },
        {
          "indexed": true,
          "internalType": "address",
          "name": "spender",
          "type": "address"
        },
        {
          "indexed": false,
          "internalType": "uint256",
          "name": "value",
          "type": "uint256"
        }
      ],
      "name": "Approval",
      "type": "event"
    },
    {
      "anonymous": false,
      "inputs": [
        {
          "indexed": true,
          "internalType": "address",
          "name": "account",
          "type": "address"
        },
        {
          "indexed": true,
          "internalType": "address",
          "name": "operator",
          "type": "address"
        },
        {
          "indexed": false,
          "internalType": "bool",
          "name": "approved",
          "type": "bool"
        }
      ],
      "name": "ApprovalForAll",
      "type": "event"
    },
    {
      "anonymous": false,
      "inputs": [
        {
          "indexed": false,
          "internalType": "uint256",
          "name": "chainId",
          "type": "uint256"
        }
      ],
      "name": "BridgeChain",
      "type": "event"
    },
    {
      "anonymous": false,
      "inputs": [
        {
          "indexed": false,
          "internalType": "address",
          "name": "account",
          "type": "address"
        },
        {
          "indexed": false,
          "internalType": "uint256",
          "name": "id",
          "type": "uint256"
        },
        {
          "indexed": false,
          "internalType": "uint256",
          "name": "amount",
          "type": "uint256"
        },
        {
          "indexed": false,
          "internalType": "uint256",
          "name": "chainId",
          "type": "uint256"
        }
      ],
      "name": "BridgeTo",
      "type": "event"
    },
    {
      "anonymous": false,
      "inputs": [
        {
          "indexed": true,
          "internalType": "address",
          "name": "previousOwner",
          "type": "address"
        },
        {
          "indexed": true,
          "internalType": "address",
          "name": "newOwner",
          "type": "address"
        }
      ],
      "name": "OwnershipTransferred",
      "type": "event"
    },
    {
      "anonymous": false,
      "inputs": [
        {
          "indexed": true,
          "internalType": "address",
          "name": "from",
          "type": "address"
        },
        {
          "indexed": true,
          "internalType": "address",
          "name": "to",
          "type": "address"
        },
        {
          "indexed": false,
          "internalType": "uint256",
          "name": "value",
          "type": "uint256"
        }
      ],
      "name": "Transfer",
      "type": "event"
    },
    {
      "anonymous": false,
      "inputs": [
        {
          "indexed": true,
          "internalType": "address",
          "name": "operator",
          "type": "address"
        },
        {
          "indexed": true,
          "internalType": "address",
          "name": "from",
          "type": "address"
        },
        {
          "indexed": true,
          "internalType": "address",
          "name": "to",
          "type": "address"
        },
        {
          "indexed": false,
          "internalType": "uint256[]",
          "name": "ids",
          "type": "uint256[]"
        },
        {
          "indexed": false,
          "internalType": "uint256[]",
          "name": "values",
          "type": "uint256[]"
        }
      ],
      "name": "TransferBatch",
      "type": "event"
    },
    {
      "anonymous": false,
      "inputs": [
        {
          "indexed": true,
          "internalType": "address",
          "name": "operator",
          "type": "address"
        },
        {
          "indexed": true,
          "internalType": "address",
          "name": "from",
          "type": "address"
        },
        {
          "indexed": true,
          "internalType": "address",
          "name": "to",
          "type": "address"
        },
        {
          "indexed": false,
          "internalType": "uint256",
          "name": "id",
          "type": "uint256"
        },
        {
          "indexed": false,
          "internalType": "uint256",
          "name": "value",
          "type": "uint256"
        }
      ],
      "name": "TransferSingle",
      "type": "event"
    },
    {
      "anonymous": false,
      "inputs": [
        {
          "indexed": false,
          "internalType": "string",
          "name": "value",
          "type": "string"
        },
        {
          "indexed": true,
          "internalType": "uint256",
          "name": "id",
          "type": "uint256"
        }
      ],
      "name": "URI",
      "type": "event"
    },
    {
      "inputs": [
        {
          "internalType": "uint256",
          "name": "chainId",
          "type": "uint256"
        }
      ],
      "name": "addBridgeChain",
      "outputs": [],
      "stateMutability": "nonpayable",
      "type": "function"
    },
    {
      "inputs": [
        {
          "internalType": "address",
          "name": "holder",
          "type": "address"
        },
        {
          "internalType": "address",
          "name": "spender",
          "type": "address"
        }
      ],
      "name": "allowance",
      "outputs": [
        {
          "internalType": "uint256",
          "name": "",
          "type": "uint256"
        }
      ],
      "stateMutability": "view",
      "type": "function"
    },
    {
      "inputs": [
        {
          "internalType": "address",
          "name": "spender",
          "type": "address"
        },
        {
          "internalType": "uint256",
          "name": "value",
          "type": "uint256"
        }
      ],
      "name": "approve",
      "outputs": [
        {
          "internalType": "bool",
          "name": "",
          "type": "bool"
        }
      ],
      "stateMutability": "nonpayable",
      "type": "function"
    },
    {
      "inputs": [
        {
          "internalType": "address",
          "name": "account",
          "type": "address"
        },
        {
          "internalType": "uint256",
          "name": "id",
          "type": "uint256"
        }
      ],
      "name": "balanceOf",
      "outputs": [
        {
          "internalType": "uint256",
          "name": "",
          "type": "uint256"
        }
      ],
      "stateMutability": "view",
      "type": "function"
    },
    {
      "inputs": [
        {
          "internalType": "address",
          "name": "account",
          "type": "address"
        }
      ],
      "name": "balanceOf",
      "outputs": [
        {
          "internalType": "uint256",
          "name": "",
          "type": "uint256"
        }
      ],
      "stateMutability": "view",
      "type": "function"
    },
    {
      "inputs": [
        {
          "internalType": "address[]",
          "name": "accounts",
          "type": "address[]"
        },
        {
          "internalType": "uint256[]",
          "name": "ids",
          "type": "uint256[]"
        }
      ],
      "name": "balanceOfBatch",
      "outputs": [
        {
          "internalType": "uint256[]",
          "name": "",
          "type": "uint256[]"
        }
      ],
      "stateMutability": "view",
      "type": "function"
    },
    {
      "inputs": [
        {
          "internalType": "uint256",
          "name": "id",
          "type": "uint256"
        },
        {
          "internalType": "uint256",
          "name": "amount",
          "type": "uint256"
        },
        {
          "internalType": "uint256",
          "name": "chainId",
          "type": "uint256"
        }
      ],
      "name": "bridgeTo",
      "outputs": [],
      "stateMutability": "nonpayable",
      "type": "function"
    },
    {
      "inputs": [
        {
          "internalType": "address",
          "name": "account",
          "type": "address"
        },
        {
          "internalType": "uint256",
          "name": "id",
          "type": "uint256"
        },
        {
          "internalType": "uint256",
          "name": "amount",
          "type": "uint256"
        }
      ],
      "name": "burn",
      "outputs": [],
      "stateMutability": "nonpayable",
      "type": "function"
    },
    {
      "inputs": [
        {
          "internalType": "uint256",
          "name": "",
          "type": "uint256"
        }
      ],
      "name": "chainIds",
      "outputs": [
        {
          "internalType": "bool",
          "name": "",
          "type": "bool"
        }
      ],
      "stateMutability": "view",
      "type": "function"
    },
    {
      "inputs": [],
      "name": "contractURI",
      "outputs": [
        {
          "internalType": "string",
          "name": "",
          "type": "string"
        }
      ],
      "stateMutability": "view",
      "type": "function"
    },
    {
      "inputs": [],
      "name": "decimals",
      "outputs": [
        {
          "internalType": "uint8",
          "name": "",
          "type": "uint8"
        }
      ],
      "stateMutability": "pure",
      "type": "function"
    },
    {
      "inputs": [],
      "name": "granularity",
      "outputs": [
        {
          "internalType": "uint256",
          "name": "",
          "type": "uint256"
        }
      ],
      "stateMutability": "pure",
      "type": "function"
    },
    {
      "inputs": [
        {
          "internalType": "address",
          "name": "account",
          "type": "address"
        },
        {
          "internalType": "address",
          "name": "operator",
          "type": "address"
        }
      ],
      "name": "isApprovedForAll",
      "outputs": [
        {
          "internalType": "bool",
          "name": "",
          "type": "bool"
        }
      ],
      "stateMutability": "view",
      "type": "function"
    },
    {
      "inputs": [
        {
          "internalType": "address",
          "name": "account",
          "type": "address"
        }
      ],
      "name": "isContract",
      "outputs": [
        {
          "internalType": "bool",
          "name": "",
          "type": "bool"
        }
      ],
      "stateMutability": "view",
      "type": "function"
    },
    {
      "inputs": [
        {
          "internalType": "address",
          "name": "account",
          "type": "address"
        },
        {
          "internalType": "uint256",
          "name": "id",
          "type": "uint256"
        },
        {
          "internalType": "uint256",
          "name": "amount",
          "type": "uint256"
        },
        {
          "internalType": "bytes",
          "name": "userData",
          "type": "bytes"
        }
      ],
      "name": "mint",
      "outputs": [],
      "stateMutability": "nonpayable",
      "type": "function"
    },
    {
      "inputs": [],
      "name": "name",
      "outputs": [
        {
          "internalType": "string",
          "name": "",
          "type": "string"
        }
      ],
      "stateMutability": "view",
      "type": "function"
    },
    {
      "inputs": [],
      "name": "owner",
      "outputs": [
        {
          "internalType": "address",
          "name": "",
          "type": "address"
        }
      ],
      "stateMutability": "view",
      "type": "function"
    },
    {
      "inputs": [],
      "name": "renounceOwnership",
      "outputs": [],
      "stateMutability": "nonpayable",
      "type": "function"
    },
    {
      "inputs": [
        {
          "internalType": "address",
          "name": "from",
          "type": "address"
        },
        {
          "internalType": "address",
          "name": "to",
          "type": "address"
        },
        {
          "internalType": "uint256[]",
          "name": "ids",
          "type": "uint256[]"
        },
        {
          "internalType": "uint256[]",
          "name": "amounts",
          "type": "uint256[]"
        },
        {
          "internalType": "bytes",
          "name": "data",
          "type": "bytes"
        }
      ],
      "name": "safeBatchTransferFrom",
      "outputs": [],
      "stateMutability": "nonpayable",
      "type": "function"
    },
    {
      "inputs": [
        {
          "internalType": "address",
          "name": "from",
          "type": "address"
        },
        {
          "internalType": "address",
          "name": "to",
          "type": "address"
        },
        {
          "internalType": "uint256",
          "name": "id",
          "type": "uint256"
        },
        {
          "internalType": "uint256",
          "name": "amount",
          "type": "uint256"
        },
        {
          "internalType": "bytes",
          "name": "data",
          "type": "bytes"
        }
      ],
      "name": "safeTransferFrom",
      "outputs": [],
      "stateMutability": "nonpayable",
      "type": "function"
    },
    {
      "inputs": [
        {
          "internalType": "address",
          "name": "operator",
          "type": "address"
        },
        {
          "internalType": "bool",
          "name": "approved",
          "type": "bool"
        }
      ],
      "name": "setApprovalForAll",
      "outputs": [],
      "stateMutability": "nonpayable",
      "type": "function"
    },
    {
      "inputs": [
        {
          "internalType": "bytes4",
          "name": "interfaceId",
          "type": "bytes4"
        }
      ],
      "name": "supportsInterface",
      "outputs": [
        {
          "internalType": "bool",
          "name": "",
          "type": "bool"
        }
      ],
      "stateMutability": "view",
      "type": "function"
    },
    {
      "inputs": [],
      "name": "symbol",
      "outputs": [
        {
          "internalType": "string",
          "name": "",
          "type": "string"
        }
      ],
      "stateMutability": "view",
      "type": "function"
    },
    {
      "inputs": [],
      "name": "totalSupply",
      "outputs": [
        {
          "internalType": "uint256",
          "name": "",
          "type": "uint256"
        }
      ],
      "stateMutability": "view",
      "type": "function"
    },
    {
      "inputs": [
        {
          "internalType": "uint256",
          "name": "id",
          "type": "uint256"
        }
      ],
      "name": "totalSupply",
      "outputs": [
        {
          "internalType": "uint256",
          "name": "",
          "type": "uint256"
        }
      ],
      "stateMutability": "view",
      "type": "function"
    },
    {
      "inputs": [
        {
          "internalType": "address",
          "name": "recipient",
          "type": "address"
        },
        {
          "internalType": "uint256",
          "name": "amount",
          "type": "uint256"
        }
      ],
      "name": "transfer",
      "outputs": [
        {
          "internalType": "bool",
          "name": "",
          "type": "bool"
        }
      ],
      "stateMutability": "nonpayable",
      "type": "function"
    },
    {
      "inputs": [
        {
          "internalType": "address",
          "name": "holder",
          "type": "address"
        },
        {
          "internalType": "address",
          "name": "recipient",
          "type": "address"
        },
        {
          "internalType": "uint256",
          "name": "amount",
          "type": "uint256"
        }
      ],
      "name": "transferFrom",
      "outputs": [
        {
          "internalType": "bool",
          "name": "",
          "type": "bool"
        }
      ],
      "stateMutability": "nonpayable",
      "type": "function"
    },
    {
      "inputs": [
        {
          "internalType": "address",
          "name": "newOwner",
          "type": "address"
        }
      ],
      "name": "transferOwnership",
      "outputs": [],
      "stateMutability": "nonpayable",
      "type": "function"
    },
    {
      "inputs": [
        {
          "internalType": "uint256",
          "name": "id",
          "type": "uint256"
        }
      ],
      "name": "uri",
      "outputs": [
        {
          "internalType": "string",
          "name": "",
          "type": "string"
        }
      ],
      "stateMutability": "view",
      "type": "function"
    }
  ],
  "bytecode": "0x60c0604052601d60808190527f68747470733a2f2f7777772e6d61686a2e7669702f6d6574616461746100000060a0908152620000409160089190620001da565b503480156200004e57600080fd5b50604051806040016040528060128152602001714d61686a6f6e672044414f20546f6b656e7360701b8152506040518060400160405280600481526020016326a0a42560e11b81525060405180606001604052806027815260200162002b7560279139620000bc3362000127565b8251620000d1906001906020860190620001da565b508151620000e7906002906020850190620001da565b508051620000fd906003906020840190620001da565b50505050620001213360006b43dacaf91c1a84ff080000006200017760201b60201c565b620002e4565b600080546001600160a01b038381166001600160a01b0319831681178455604051919092169283917f8be0079c531659141344cd1fd0a4f28419497f9722a3daafe3b4186f6b6457e09190a35050565b600082815260076020526040812080548392906200019790849062000280565b909155505060008281526005602090815260408083206001600160a01b038716845290915281208054839290620001d090849062000280565b9091555050505050565b828054620001e890620002a7565b90600052602060002090601f0160209004810192826200020c576000855562000257565b82601f106200022757805160ff191683800117855562000257565b8280016001018555821562000257579182015b82811115620002575782518255916020019190600101906200023a565b506200026592915062000269565b5090565b5b808211156200026557600081556001016200026a565b60008219821115620002a257634e487b7160e01b600052601160045260246000fd5b500190565b600181811c90821680620002bc57607f821691505b60208210811415620002de57634e487b7160e01b600052602260045260246000fd5b50919050565b61288180620002f46000396000f3fe608060405234801561001057600080fd5b50600436106101ce5760003560e01c8063556f0dc711610104578063a9059cbb116100a2578063e985e9c511610071578063e985e9c514610471578063f242432a146104ad578063f2fde38b146104c0578063f5298aca146104d357600080fd5b8063a9059cbb146103fd578063bd85b03914610410578063dd62ed3e14610430578063e8a3d4851461046957600080fd5b8063731133e9116100de578063731133e9146103b45780638da5cb5b146103c757806395d89b41146103e2578063a22cb465146103ea57600080fd5b8063556f0dc71461035d57806370a0823114610364578063715018a6146103ac57600080fd5b806321d9309011610171578063313ce5671161014b578063313ce5671461030857806332c55b8a146103175780633ba74a8d1461032a5780634e1273f41461033d57600080fd5b806321d93090146102bd57806323b872dd146102e05780632eb2c2d6146102f357600080fd5b8063095ea7b3116101ad578063095ea7b3146102535780630e89341c14610266578063162790551461027957806318160ddd1461028d57600080fd5b8062fdd58e146101d357806301ffc9a71461021b57806306fdde031461023e575b600080fd5b6102086101e136600461200b565b60009081526005602090815260408083206001600160a01b03949094168352929052205490565b6040519081526020015b60405180910390f35b61022e610229366004612063565b6104e6565b6040519015158152602001610212565b6102466104f7565b60405161021291906120f2565b61022e61026136600461200b565b610589565b610246610274366004612105565b61059f565b61022e61028736600461211e565b3b151590565b6000805260076020527f6d5257204ebe7d88fd91ae87941cb2dd9d8062b64ae5a2bd2d28ec40b9fbf6df54610208565b61022e6102cb366004612105565b60096020526000908152604090205460ff1681565b61022e6102ee366004612139565b61064c565b610306610301366004612310565b6107e0565b005b60405160128152602001610212565b610306610325366004612105565b61087a565b6103066103383660046123ba565b6109f9565b61035061034b3660046123e6565b610afe565b60405161021291906124e1565b6001610208565b61020861037236600461211e565b6001600160a01b031660009081527f05b8ccbb9d4d8fb16ea74ce3c29a41f1b461fbdaff4714a0d9a8eb05499746bc602052604090205490565b610306610c38565b6103066103c23660046124f4565b610c9e565b6000546040516001600160a01b039091168152602001610212565b610246610eb3565b6103066103f8366004612555565b610ec2565b61022e61040b36600461200b565b610ffb565b61020861041e366004612105565b60009081526007602052604090205490565b61020861043e366004612591565b6001600160a01b03918216600090815260046020908152604080832093909416825291909152205490565b610246611070565b61022e61047f366004612591565b6001600160a01b03918216600090815260066020908152604080832093909416825291909152205460ff1690565b6103066104bb3660046125c4565b6110fe565b6103066104ce36600461211e565b6111e3565b6103066104e1366004612629565b6112c5565b60006104f18261132d565b92915050565b6060600180546105069061265c565b80601f01602080910402602001604051908101604052809291908181526020018280546105329061265c565b801561057f5780601f106105545761010080835404028352916020019161057f565b820191906000526020600020905b81548152906001019060200180831161056257829003601f168201915b5050505050905090565b6000610596338484611410565b50600192915050565b6060816105ba57505060408051602081019091526000815290565b600380546105c79061265c565b80601f01602080910402602001604051908101604052809291908181526020018280546105f39061265c565b80156106405780601f1061061557610100808354040283529160200191610640565b820191906000526020600020905b81548152906001019060200180831161062357829003601f168201915b50505050509050919050565b60006001600160a01b0383166106a95760405162461bcd60e51b815260206004820152600960248201527f302061646472657373000000000000000000000000000000000000000000000060448201526064015b60405180910390fd5b6001600160a01b0384166106ff5760405162461bcd60e51b815260206004820152600960248201527f302061646472657373000000000000000000000000000000000000000000000060448201526064016106a0565b336001600160a01b038516146107b9576001600160a01b03841660009081526004602090815260408083203384529091529020547fffffffffffffffffffffffffffffffffffffffffffffffffffffffffffffffff81146107b757828110156107aa5760405162461bcd60e51b815260206004820152601160248201527f6578636565647320616c6c6f77616e636500000000000000000000000000000060448201526064016106a0565b6107b78533858403611410565b505b6107d684846000856040518060200160405280600081525061151d565b5060019392505050565b6001600160a01b03851633148061081a57506001600160a01b038516600090815260066020908152604080832033845290915290205460ff165b6108665760405162461bcd60e51b815260206004820152600c60248201527f6e6f7420617070726f766564000000000000000000000000000000000000000060448201526064016106a0565b61087385858585856116e3565b5050505050565b6000546001600160a01b031633146108d45760405162461bcd60e51b815260206004820181905260248201527f4f776e61626c653a2063616c6c6572206973206e6f7420746865206f776e657260448201526064016106a0565b60008181526009602052604090205460ff16156109335760405162461bcd60e51b815260206004820152601260248201527f616c726561647920737570706f727465642e000000000000000000000000000060448201526064016106a0565b46818114156109845760405162461bcd60e51b815260206004820152601960248201527f63616e6e6f74206164642063757272656e7420636861696e2e0000000000000060448201526064016106a0565b6000828152600960205260409081902080547fffffffffffffffffffffffffffffffffffffffffffffffffffffffffffffff00166001179055517f5335d75def0c5c36bfaad54c582baf9ffce005d9504a9ff29a2a23487bcc4a5d906109ed9084815260200190565b60405180910390a15050565b60008181526009602052604090205460ff16610a575760405162461bcd60e51b815260206004820152601460248201527f636861696e206e6f7420737570706f727465642e00000000000000000000000060448201526064016106a0565b333b15610aa65760405162461bcd60e51b815260206004820152601760248201527f636f6e7472616374206e6f7420737570706f727465642e00000000000000000060448201526064016106a0565b610ab133848461195b565b6040805133815260208101859052908101839052606081018290527f58fba98de30a3ca6b567d59dfc5578d71cfa5a268e89c18f5bfdc8ebcfa7a12e9060800160405180910390a1505050565b60608151835114610b515760405162461bcd60e51b815260206004820152600f60248201527f6c656e677468206d69736d61746368000000000000000000000000000000000060448201526064016106a0565b6000835167ffffffffffffffff811115610b6d57610b6d612175565b604051908082528060200260200182016040528015610b96578160200160208202803683370190505b50905060005b8451811015610c3057610c03858281518110610bba57610bba6126b0565b6020026020010151858381518110610bd457610bd46126b0565b602002602001015160009081526005602090815260408083206001600160a01b03949094168352929052205490565b828281518110610c1557610c156126b0565b6020908102919091010152610c298161270e565b9050610b9c565b509392505050565b6000546001600160a01b03163314610c925760405162461bcd60e51b815260206004820181905260248201527f4f776e61626c653a2063616c6c6572206973206e6f7420746865206f776e657260448201526064016106a0565b610c9c6000611af5565b565b6000546001600160a01b03163314610cf85760405162461bcd60e51b815260206004820181905260248201527f4f776e61626c653a2063616c6c6572206973206e6f7420746865206f776e657260448201526064016106a0565b600083815260076020526040812054610d12908490612747565b905083610d7a576b43dacaf91c1a84ff08000000811115610d755760405162461bcd60e51b815260206004820152601160248201527f657863656564206d617820737570706c7900000000000000000000000000000060448201526064016106a0565b610ea7565b6201f0228410158015610d9057506201f0298411155b15610de6576001811115610d755760405162461bcd60e51b815260206004820152600b60248201527f6f6e6c7920312074696c6500000000000000000000000000000000000000000060448201526064016106a0565b6201f0008410158015610dfc57506201f02a8411155b15610e52576004811115610d755760405162461bcd60e51b815260206004820152600c60248201527f6f6e6c7920342074696c6573000000000000000000000000000000000000000060448201526064016106a0565b6404e3b29200811115610ea75760405162461bcd60e51b815260206004820152601160248201527f657863656564206d617820737570706c7900000000000000000000000000000060448201526064016106a0565b61087385858585611b5d565b6060600280546105069061265c565b336001600160a01b0383161415610f1b5760405162461bcd60e51b815260206004820152601160248201527f617070726f76616c20666f722073656c6600000000000000000000000000000060448201526064016106a0565b6001600160a01b038216610f715760405162461bcd60e51b815260206004820152600e60248201527f617070726f76616c20666f72203000000000000000000000000000000000000060448201526064016106a0565b3360008181526006602090815260408083206001600160a01b0387168085529083529281902080547fffffffffffffffffffffffffffffffffffffffffffffffffffffffffffffff001686151590811790915590519081529192917f17307eab39ab6107e8899845ad3d59bd9653f200f220920489ca2b5937696c31910160405180910390a35050565b60006001600160a01b0383166110535760405162461bcd60e51b815260206004820152600960248201527f302061646472657373000000000000000000000000000000000000000000000060448201526064016106a0565b61059633846000856040518060200160405280600081525061151d565b6008805461107d9061265c565b80601f01602080910402602001604051908101604052809291908181526020018280546110a99061265c565b80156110f65780601f106110cb576101008083540402835291602001916110f6565b820191906000526020600020905b8154815290600101906020018083116110d957829003601f168201915b505050505081565b600083116111505760405162461bcd60e51b81526004016106a09060208082526004908201527f3020696400000000000000000000000000000000000000000000000000000000604082015260600190565b6001600160a01b03851633148061118a57506001600160a01b038516600090815260066020908152604080832033845290915290205460ff165b6111d65760405162461bcd60e51b815260206004820152600c60248201527f6e6f7420617070726f766564000000000000000000000000000000000000000060448201526064016106a0565b610873858585858561151d565b6000546001600160a01b0316331461123d5760405162461bcd60e51b815260206004820181905260248201527f4f776e61626c653a2063616c6c6572206973206e6f7420746865206f776e657260448201526064016106a0565b6001600160a01b0381166112b95760405162461bcd60e51b815260206004820152602660248201527f4f776e61626c653a206e6577206f776e657220697320746865207a65726f206160448201527f646472657373000000000000000000000000000000000000000000000000000060648201526084016106a0565b6112c281611af5565b50565b6001600160a01b038316331461131d5760405162461bcd60e51b815260206004820152600960248201527f6e6f74206f776e6572000000000000000000000000000000000000000000000060448201526064016106a0565b61132883838361195b565b505050565b60007fffffffff0000000000000000000000000000000000000000000000000000000082167fd9b67a260000000000000000000000000000000000000000000000000000000014806113c057507fffffffff0000000000000000000000000000000000000000000000000000000082167f0e89341c00000000000000000000000000000000000000000000000000000000145b806104f157507f01ffc9a7000000000000000000000000000000000000000000000000000000007fffffffff000000000000000000000000000000000000000000000000000000008316146104f1565b6001600160a01b0383166114665760405162461bcd60e51b815260206004820152600960248201527f302061646472657373000000000000000000000000000000000000000000000060448201526064016106a0565b6001600160a01b0382166114bc5760405162461bcd60e51b815260206004820152600960248201527f302061646472657373000000000000000000000000000000000000000000000060448201526064016106a0565b6001600160a01b0383811660008181526004602090815260408083209487168084529482529182902085905590518481527f8c5be1e5ebec7d5bd14f71427d1e84f3dd0314c0f7b2291e5b200ac8c7c3b925910160405180910390a3505050565b6001600160a01b0384166115735760405162461bcd60e51b815260206004820152600960248201527f302061646472657373000000000000000000000000000000000000000000000060448201526064016106a0565b60008381526005602090815260408083206001600160a01b0389168452909152902054828110156115e65760405162461bcd60e51b815260206004820152601460248201527f696e73756666696369656e742062616c616e636500000000000000000000000060448201526064016106a0565b60008481526005602090815260408083206001600160a01b038a8116855292528083208685039055908716825281208054859290611625908490612747565b90915550508361168257846001600160a01b0316866001600160a01b03167fddf252ad1be2c89b69c2b068fc378daa952ba7f163c4a11628f55a4df523b3ef8560405161167491815260200190565b60405180910390a350610873565b60408051858152602081018590526001600160a01b03808816929089169133917fc3d58168c5ae7397731d063d5bbf3d657854427343f4c083240f7aacaa2d0f62910160405180910390a46116db338787878787611c55565b505050505050565b81518351146117345760405162461bcd60e51b815260206004820152600f60248201527f6c656e677468206d69736d61746368000000000000000000000000000000000060448201526064016106a0565b6001600160a01b03841661178a5760405162461bcd60e51b815260206004820152600960248201527f302061646472657373000000000000000000000000000000000000000000000060448201526064016106a0565b60005b83518110156118f55760008482815181106117aa576117aa6126b0565b60200260200101519050600081116118065760405162461bcd60e51b81526004016106a09060208082526004908201527f3020696400000000000000000000000000000000000000000000000000000000604082015260600190565b600084838151811061181a5761181a6126b0565b60209081029190910181015160008481526005835260408082206001600160a01b038d16835290935291909120549091508181101561189b5760405162461bcd60e51b815260206004820152601460248201527f696e73756666696369656e742062616c616e636500000000000000000000000060448201526064016106a0565b60008381526005602090815260408083206001600160a01b038d8116855292528083208585039055908a168252812080548492906118da908490612747565b92505081905550505050806118ee9061270e565b905061178d565b50836001600160a01b0316856001600160a01b0316336001600160a01b03167f4a39dc06d4c0dbc64b70af90fd698a233a518aa5d07e595d983b8c0526c8f7fb868660405161194592919061275f565b60405180910390a4610873338686868686611df7565b6001600160a01b0383166119b15760405162461bcd60e51b815260206004820152600960248201527f302061646472657373000000000000000000000000000000000000000000000060448201526064016106a0565b60008281526005602090815260408083206001600160a01b038716845290915290205481811015611a245760405162461bcd60e51b815260206004820152600f60248201527f657863656564732062616c616e6365000000000000000000000000000000000060448201526064016106a0565b600083815260076020908152604080832080548690039055600582528083206001600160a01b03881684529091529020828203905582611aa5576040518281526000906001600160a01b038616907fddf252ad1be2c89b69c2b068fc378daa952ba7f163c4a11628f55a4df523b3ef906020015b60405180910390a3611aef565b60408051848152602081018490526000916001600160a01b0387169133917fc3d58168c5ae7397731d063d5bbf3d657854427343f4c083240f7aacaa2d0f62910160405180910390a45b50505050565b600080546001600160a01b038381167fffffffffffffffffffffffff0000000000000000000000000000000000000000831681178455604051919092169283917f8be0079c531659141344cd1fd0a4f28419497f9722a3daafe3b4186f6b6457e09190a35050565b6001600160a01b038416611bb35760405162461bcd60e51b815260206004820152600960248201527f302061646472657373000000000000000000000000000000000000000000000060448201526064016106a0565b611bbe848484611f90565b82611c01576040518281526001600160a01b038516906000907fddf252ad1be2c89b69c2b068fc378daa952ba7f163c4a11628f55a4df523b3ef90602001611a98565b60408051848152602081018490526001600160a01b0386169160009133917fc3d58168c5ae7397731d063d5bbf3d657854427343f4c083240f7aacaa2d0f62910160405180910390a4611aef336000868686865b833b156116db576040517ff23a6e610000000000000000000000000000000000000000000000000000000081526001600160a01b0385169063f23a6e6190611ca9908990899088908890889060040161278d565b602060405180830381600087803b158015611cc357600080fd5b505af1925050508015611d11575060408051601f3d9081017fffffffffffffffffffffffffffffffffffffffffffffffffffffffffffffffe0168201909252611d0e918101906127d0565b60015b611d5d5760405162461bcd60e51b815260206004820152601360248201527f6e6f6e204552433131353552656365697665720000000000000000000000000060448201526064016106a0565b7fffffffff0000000000000000000000000000000000000000000000000000000081167ff23a6e610000000000000000000000000000000000000000000000000000000014611dee5760405162461bcd60e51b815260206004820152601860248201527f4552433131353552656365697665722072656a6563746564000000000000000060448201526064016106a0565b50505050505050565b833b156116db576040517fbc197c810000000000000000000000000000000000000000000000000000000081526001600160a01b0385169063bc197c8190611e4b90899089908890889088906004016127ed565b602060405180830381600087803b158015611e6557600080fd5b505af1925050508015611eb3575060408051601f3d9081017fffffffffffffffffffffffffffffffffffffffffffffffffffffffffffffffe0168201909252611eb0918101906127d0565b60015b611eff5760405162461bcd60e51b815260206004820152601360248201527f6e6f6e204552433131353552656365697665720000000000000000000000000060448201526064016106a0565b7fffffffff0000000000000000000000000000000000000000000000000000000081167fbc197c810000000000000000000000000000000000000000000000000000000014611dee5760405162461bcd60e51b815260206004820152601860248201527f4552433131353552656365697665722072656a6563746564000000000000000060448201526064016106a0565b60008281526007602052604081208054839290611fae908490612747565b909155505060008281526005602090815260408083206001600160a01b038716845290915281208054839290611fe5908490612747565b9091555050505050565b80356001600160a01b038116811461200657600080fd5b919050565b6000806040838503121561201e57600080fd5b61202783611fef565b946020939093013593505050565b7fffffffff00000000000000000000000000000000000000000000000000000000811681146112c257600080fd5b60006020828403121561207557600080fd5b813561208081612035565b9392505050565b6000815180845260005b818110156120ad57602081850181015186830182015201612091565b818111156120bf576000602083870101525b50601f017fffffffffffffffffffffffffffffffffffffffffffffffffffffffffffffffe0169290920160200192915050565b6020815260006120806020830184612087565b60006020828403121561211757600080fd5b5035919050565b60006020828403121561213057600080fd5b61208082611fef565b60008060006060848603121561214e57600080fd5b61215784611fef565b925061216560208501611fef565b9150604084013590509250925092565b7f4e487b7100000000000000000000000000000000000000000000000000000000600052604160045260246000fd5b604051601f82017fffffffffffffffffffffffffffffffffffffffffffffffffffffffffffffffe016810167ffffffffffffffff811182821017156121eb576121eb612175565b604052919050565b600067ffffffffffffffff82111561220d5761220d612175565b5060051b60200190565b600082601f83011261222857600080fd5b8135602061223d612238836121f3565b6121a4565b82815260059290921b8401810191818101908684111561225c57600080fd5b8286015b848110156122775780358352918301918301612260565b509695505050505050565b600082601f83011261229357600080fd5b813567ffffffffffffffff8111156122ad576122ad612175565b6122de60207fffffffffffffffffffffffffffffffffffffffffffffffffffffffffffffffe0601f840116016121a4565b8181528460208386010111156122f357600080fd5b816020850160208301376000918101602001919091529392505050565b600080600080600060a0868803121561232857600080fd5b61233186611fef565b945061233f60208701611fef565b9350604086013567ffffffffffffffff8082111561235c57600080fd5b61236889838a01612217565b9450606088013591508082111561237e57600080fd5b61238a89838a01612217565b935060808801359150808211156123a057600080fd5b506123ad88828901612282565b9150509295509295909350565b6000806000606084860312156123cf57600080fd5b505081359360208301359350604090920135919050565b600080604083850312156123f957600080fd5b823567ffffffffffffffff8082111561241157600080fd5b818501915085601f83011261242557600080fd5b81356020612435612238836121f3565b82815260059290921b8401810191818101908984111561245457600080fd5b948201945b838610156124795761246a86611fef565b82529482019490820190612459565b9650508601359250508082111561248f57600080fd5b5061249c85828601612217565b9150509250929050565b600081518084526020808501945080840160005b838110156124d6578151875295820195908201906001016124ba565b509495945050505050565b60208152600061208060208301846124a6565b6000806000806080858703121561250a57600080fd5b61251385611fef565b93506020850135925060408501359150606085013567ffffffffffffffff81111561253d57600080fd5b61254987828801612282565b91505092959194509250565b6000806040838503121561256857600080fd5b61257183611fef565b91506020830135801515811461258657600080fd5b809150509250929050565b600080604083850312156125a457600080fd5b6125ad83611fef565b91506125bb60208401611fef565b90509250929050565b600080600080600060a086880312156125dc57600080fd5b6125e586611fef565b94506125f360208701611fef565b93506040860135925060608601359150608086013567ffffffffffffffff81111561261d57600080fd5b6123ad88828901612282565b60008060006060848603121561263e57600080fd5b61264784611fef565b95602085013595506040909401359392505050565b600181811c9082168061267057607f821691505b602082108114156126aa577f4e487b7100000000000000000000000000000000000000000000000000000000600052602260045260246000fd5b50919050565b7f4e487b7100000000000000000000000000000000000000000000000000000000600052603260045260246000fd5b7f4e487b7100000000000000000000000000000000000000000000000000000000600052601160045260246000fd5b60007fffffffffffffffffffffffffffffffffffffffffffffffffffffffffffffffff821415612740576127406126df565b5060010190565b6000821982111561275a5761275a6126df565b500190565b60408152600061277260408301856124a6565b828103602084015261278481856124a6565b95945050505050565b60006001600160a01b03808816835280871660208401525084604083015283606083015260a060808301526127c560a0830184612087565b979650505050505050565b6000602082840312156127e257600080fd5b815161208081612035565b60006001600160a01b03808816835280871660208401525060a0604083015261281960a08301866124a6565b828103606084015261282b81866124a6565b9050828103608084015261283f8185612087565b9897505050505050505056fea26469706673582212205ccaf84872550174e665ac380ba9a66236eb20f8b97254db5f303b3c16792f5f64736f6c6343000809003368747470733a2f2f7777772e6d61686a2e7669702f6d657461646174612f7b69647d2e6a736f6e",
  "linkReferences": {},
  "deployedLinkReferences": {}
}