{
  "_format": "hh-sol-artifact-1",
  "contractName": "Mahjong",
  "sourceName": "contracts/Mahjong.sol",
  "abi": [
    {
      "inputs": [],
      "stateMutability": "nonpayable",
      "type": "constructor"
    },
    {
      "anonymous": false,
      "inputs": [
        {
          "indexed": true,
          "internalType": "address",
          "name": "owner",
          "type": "address"
        },
        {
          "indexed": true,
          "internalType": "address",
          "name": "spender",
          "type": "address"
        },
        {
          "indexed": false,
          "internalType": "uint256",
          "name": "value",
          "type": "uint256"
        }
      ],
      "name": "Approval",
      "type": "event"
    },
    {
      "anonymous": false,
      "inputs": [
        {
          "indexed": true,
          "internalType": "address",
          "name": "admin",
          "type": "address"
        },
        {
          "indexed": true,
          "internalType": "address",
          "name": "account",
          "type": "address"
        },
        {
          "indexed": false,
          "internalType": "bool",
          "name": "approved",
          "type": "bool"
        }
      ],
      "name": "ApprovalAdmin",
      "type": "event"
    },
    {
      "anonymous": false,
      "inputs": [
        {
          "indexed": true,
          "internalType": "address",
          "name": "account",
          "type": "address"
        },
        {
          "indexed": true,
          "internalType": "address",
          "name": "operator",
          "type": "address"
        },
        {
          "indexed": false,
          "internalType": "bool",
          "name": "approved",
          "type": "bool"
        }
      ],
      "name": "ApprovalForAll",
      "type": "event"
    },
    {
      "anonymous": false,
      "inputs": [
        {
          "indexed": true,
          "internalType": "address",
          "name": "from",
          "type": "address"
        },
        {
          "indexed": true,
          "internalType": "address",
          "name": "to",
          "type": "address"
        },
        {
          "indexed": false,
          "internalType": "uint256",
          "name": "value",
          "type": "uint256"
        }
      ],
      "name": "Transfer",
      "type": "event"
    },
    {
      "anonymous": false,
      "inputs": [
        {
          "indexed": true,
          "internalType": "address",
          "name": "operator",
          "type": "address"
        },
        {
          "indexed": true,
          "internalType": "address",
          "name": "from",
          "type": "address"
        },
        {
          "indexed": true,
          "internalType": "address",
          "name": "to",
          "type": "address"
        },
        {
          "indexed": false,
          "internalType": "uint256[]",
          "name": "ids",
          "type": "uint256[]"
        },
        {
          "indexed": false,
          "internalType": "uint256[]",
          "name": "values",
          "type": "uint256[]"
        }
      ],
      "name": "TransferBatch",
      "type": "event"
    },
    {
      "anonymous": false,
      "inputs": [
        {
          "indexed": true,
          "internalType": "address",
          "name": "operator",
          "type": "address"
        },
        {
          "indexed": true,
          "internalType": "address",
          "name": "from",
          "type": "address"
        },
        {
          "indexed": true,
          "internalType": "address",
          "name": "to",
          "type": "address"
        },
        {
          "indexed": false,
          "internalType": "uint256",
          "name": "id",
          "type": "uint256"
        },
        {
          "indexed": false,
          "internalType": "uint256",
          "name": "value",
          "type": "uint256"
        }
      ],
      "name": "TransferSingle",
      "type": "event"
    },
    {
      "anonymous": false,
      "inputs": [
        {
          "indexed": false,
          "internalType": "string",
          "name": "value",
          "type": "string"
        },
        {
          "indexed": true,
          "internalType": "uint256",
          "name": "id",
          "type": "uint256"
        }
      ],
      "name": "URI",
      "type": "event"
    },
    {
      "inputs": [
        {
          "internalType": "address",
          "name": "holder",
          "type": "address"
        },
        {
          "internalType": "address",
          "name": "spender",
          "type": "address"
        }
      ],
      "name": "allowance",
      "outputs": [
        {
          "internalType": "uint256",
          "name": "",
          "type": "uint256"
        }
      ],
      "stateMutability": "view",
      "type": "function"
    },
    {
      "inputs": [
        {
          "internalType": "address",
          "name": "spender",
          "type": "address"
        },
        {
          "internalType": "uint256",
          "name": "value",
          "type": "uint256"
        }
      ],
      "name": "approve",
      "outputs": [
        {
          "internalType": "bool",
          "name": "",
          "type": "bool"
        }
      ],
      "stateMutability": "nonpayable",
      "type": "function"
    },
    {
      "inputs": [
        {
          "internalType": "address",
          "name": "account",
          "type": "address"
        },
        {
          "internalType": "uint256",
          "name": "id",
          "type": "uint256"
        }
      ],
      "name": "balanceOf",
      "outputs": [
        {
          "internalType": "uint256",
          "name": "",
          "type": "uint256"
        }
      ],
      "stateMutability": "view",
      "type": "function"
    },
    {
      "inputs": [
        {
          "internalType": "address",
          "name": "account",
          "type": "address"
        }
      ],
      "name": "balanceOf",
      "outputs": [
        {
          "internalType": "uint256",
          "name": "",
          "type": "uint256"
        }
      ],
      "stateMutability": "view",
      "type": "function"
    },
    {
      "inputs": [
        {
          "internalType": "address[]",
          "name": "accounts",
          "type": "address[]"
        },
        {
          "internalType": "uint256[]",
          "name": "ids",
          "type": "uint256[]"
        }
      ],
      "name": "balanceOfBatch",
      "outputs": [
        {
          "internalType": "uint256[]",
          "name": "",
          "type": "uint256[]"
        }
      ],
      "stateMutability": "view",
      "type": "function"
    },
    {
      "inputs": [
        {
          "internalType": "address",
          "name": "account",
          "type": "address"
        },
        {
          "internalType": "uint256",
          "name": "id",
          "type": "uint256"
        },
        {
          "internalType": "uint256",
          "name": "value",
          "type": "uint256"
        }
      ],
      "name": "burn",
      "outputs": [],
      "stateMutability": "nonpayable",
      "type": "function"
    },
    {
      "inputs": [],
      "name": "contractURI",
      "outputs": [
        {
          "internalType": "string",
          "name": "",
          "type": "string"
        }
      ],
      "stateMutability": "view",
      "type": "function"
    },
    {
      "inputs": [],
      "name": "decimals",
      "outputs": [
        {
          "internalType": "uint8",
          "name": "",
          "type": "uint8"
        }
      ],
      "stateMutability": "pure",
      "type": "function"
    },
    {
      "inputs": [],
      "name": "granularity",
      "outputs": [
        {
          "internalType": "uint256",
          "name": "",
          "type": "uint256"
        }
      ],
      "stateMutability": "pure",
      "type": "function"
    },
    {
      "inputs": [
        {
          "internalType": "address",
          "name": "account",
          "type": "address"
        }
      ],
      "name": "isAdmin",
      "outputs": [
        {
          "internalType": "bool",
          "name": "",
          "type": "bool"
        }
      ],
      "stateMutability": "view",
      "type": "function"
    },
    {
      "inputs": [
        {
          "internalType": "address",
          "name": "account",
          "type": "address"
        },
        {
          "internalType": "address",
          "name": "operator",
          "type": "address"
        }
      ],
      "name": "isApprovedForAll",
      "outputs": [
        {
          "internalType": "bool",
          "name": "",
          "type": "bool"
        }
      ],
      "stateMutability": "view",
      "type": "function"
    },
    {
      "inputs": [
        {
          "internalType": "address",
          "name": "to",
          "type": "address"
        },
        {
          "internalType": "uint256",
          "name": "id",
          "type": "uint256"
        },
        {
          "internalType": "uint256",
          "name": "amount",
          "type": "uint256"
        },
        {
          "internalType": "bytes",
          "name": "userData",
          "type": "bytes"
        }
      ],
      "name": "mint",
      "outputs": [],
      "stateMutability": "nonpayable",
      "type": "function"
    },
    {
      "inputs": [],
      "name": "name",
      "outputs": [
        {
          "internalType": "string",
          "name": "",
          "type": "string"
        }
      ],
      "stateMutability": "view",
      "type": "function"
    },
    {
      "inputs": [
        {
          "internalType": "address",
          "name": "from",
          "type": "address"
        },
        {
          "internalType": "address",
          "name": "to",
          "type": "address"
        },
        {
          "internalType": "uint256[]",
          "name": "ids",
          "type": "uint256[]"
        },
        {
          "internalType": "uint256[]",
          "name": "amounts",
          "type": "uint256[]"
        },
        {
          "internalType": "bytes",
          "name": "data",
          "type": "bytes"
        }
      ],
      "name": "safeBatchTransferFrom",
      "outputs": [],
      "stateMutability": "nonpayable",
      "type": "function"
    },
    {
      "inputs": [
        {
          "internalType": "address",
          "name": "from",
          "type": "address"
        },
        {
          "internalType": "address",
          "name": "to",
          "type": "address"
        },
        {
          "internalType": "uint256",
          "name": "id",
          "type": "uint256"
        },
        {
          "internalType": "uint256",
          "name": "amount",
          "type": "uint256"
        },
        {
          "internalType": "bytes",
          "name": "data",
          "type": "bytes"
        }
      ],
      "name": "safeTransferFrom",
      "outputs": [],
      "stateMutability": "nonpayable",
      "type": "function"
    },
    {
      "inputs": [
        {
          "internalType": "address",
          "name": "account",
          "type": "address"
        },
        {
          "internalType": "bool",
          "name": "approved",
          "type": "bool"
        }
      ],
      "name": "setAdmin",
      "outputs": [],
      "stateMutability": "nonpayable",
      "type": "function"
    },
    {
      "inputs": [
        {
          "internalType": "address",
          "name": "operator",
          "type": "address"
        },
        {
          "internalType": "bool",
          "name": "approved",
          "type": "bool"
        }
      ],
      "name": "setApprovalForAll",
      "outputs": [],
      "stateMutability": "nonpayable",
      "type": "function"
    },
    {
      "inputs": [
        {
          "internalType": "bytes4",
          "name": "interfaceId",
          "type": "bytes4"
        }
      ],
      "name": "supportsInterface",
      "outputs": [
        {
          "internalType": "bool",
          "name": "",
          "type": "bool"
        }
      ],
      "stateMutability": "view",
      "type": "function"
    },
    {
      "inputs": [],
      "name": "symbol",
      "outputs": [
        {
          "internalType": "string",
          "name": "",
          "type": "string"
        }
      ],
      "stateMutability": "view",
      "type": "function"
    },
    {
      "inputs": [],
      "name": "tokens",
      "outputs": [
        {
          "internalType": "uint256[]",
          "name": "",
          "type": "uint256[]"
        }
      ],
      "stateMutability": "view",
      "type": "function"
    },
    {
      "inputs": [],
      "name": "totalSupply",
      "outputs": [
        {
          "internalType": "uint256",
          "name": "",
          "type": "uint256"
        }
      ],
      "stateMutability": "view",
      "type": "function"
    },
    {
      "inputs": [
        {
          "internalType": "uint256",
          "name": "id",
          "type": "uint256"
        }
      ],
      "name": "totalSupply",
      "outputs": [
        {
          "internalType": "uint256",
          "name": "",
          "type": "uint256"
        }
      ],
      "stateMutability": "view",
      "type": "function"
    },
    {
      "inputs": [
        {
          "internalType": "address",
          "name": "recipient",
          "type": "address"
        },
        {
          "internalType": "uint256",
          "name": "amount",
          "type": "uint256"
        }
      ],
      "name": "transfer",
      "outputs": [
        {
          "internalType": "bool",
          "name": "",
          "type": "bool"
        }
      ],
      "stateMutability": "nonpayable",
      "type": "function"
    },
    {
      "inputs": [
        {
          "internalType": "address",
          "name": "holder",
          "type": "address"
        },
        {
          "internalType": "address",
          "name": "recipient",
          "type": "address"
        },
        {
          "internalType": "uint256",
          "name": "amount",
          "type": "uint256"
        }
      ],
      "name": "transferFrom",
      "outputs": [
        {
          "internalType": "bool",
          "name": "",
          "type": "bool"
        }
      ],
      "stateMutability": "nonpayable",
      "type": "function"
    },
    {
      "inputs": [
        {
          "internalType": "uint256",
          "name": "",
          "type": "uint256"
        }
      ],
      "name": "uri",
      "outputs": [
        {
          "internalType": "string",
          "name": "",
          "type": "string"
        }
      ],
      "stateMutability": "view",
      "type": "function"
    }
  ],
  "bytecode": "0x60c0604052601960808190527f68747470733a2f2f7777772e6d61686a2e7669702f6d6574610000000000000060a090815262000040916007919062000299565b503480156200004e57600080fd5b506040518060400160405280600e81526020016d4d61686a6f6e6720546f6b656e7360901b8152506040518060400160405280600481526020016326a0a42560e11b81525060405180606001604052806023815260200162002f13602391398251620000c290600090602086019062000299565b508151620000d890600190602085019062000299565b508051620000ee90600290602084019062000299565b5050336000818152600960205260408120805460ff191660011790556200012693509091506b033b2e3c9fd0803ce800000062000236565b60088054600181018255600091825260008051602062002f3683398151915201556201f0005b6201f02181116200019e57620001653382600462000236565b6008805460018101825560009190915260008051602062002f368339815191520181905580620001958162000355565b9150506200014c565b506201f0225b6201f0298111620001f657620001bd3382600162000236565b6008805460018101825560009190915260008051602062002f368339815191520181905580620001ed8162000355565b915050620001a4565b5062000208336201f02a600462000236565b600880546001810182556000919091526201f02a60008051602062002f3683398151915290910155620003cb565b600082815260066020526040812080548392906200025690849062000373565b909155505060008281526004602090815260408083206001600160a01b0387168452909152812080548392906200028f90849062000373565b9091555050505050565b828054620002a7906200038e565b90600052602060002090601f016020900481019282620002cb576000855562000316565b82601f10620002e657805160ff191683800117855562000316565b8280016001018555821562000316579182015b8281111562000316578251825591602001919060010190620002f9565b506200032492915062000328565b5090565b5b8082111562000324576000815560010162000329565b634e487b7160e01b600052601160045260246000fd5b60006000198214156200036c576200036c6200033f565b5060010190565b600082198211156200038957620003896200033f565b500190565b600181811c90821680620003a357607f821691505b60208210811415620003c557634e487b7160e01b600052602260045260246000fd5b50919050565b612b3880620003db6000396000f3fe608060405234801561001057600080fd5b50600436106101a25760003560e01c8063556f0dc7116100ee578063a9059cbb11610097578063e8a3d48511610071578063e8a3d485146103f6578063e985e9c5146103fe578063f242432a14610447578063f5298aca1461045a57600080fd5b8063a9059cbb1461037d578063bd85b03914610390578063dd62ed3e146103b057600080fd5b806395d89b41116100c857806395d89b411461035a5780639d63848a14610362578063a22cb4651461036a57600080fd5b8063556f0dc71461032d57806370a0823114610334578063731133e91461034757600080fd5b806323b872dd11610150578063313ce5671161012a578063313ce567146102eb5780634b0bddd2146102fa5780634e1273f41461030d57600080fd5b806323b872dd1461028a57806324d7806c1461029d5780632eb2c2d6146102d657600080fd5b8063095ea7b311610181578063095ea7b3146102345780630e89341c1461024757806318160ddd1461025a57600080fd5b8062fdd58e146101a757806301ffc9a7146101fc57806306fdde031461021f575b600080fd5b6101e96101b53660046122d1565b600090815260046020908152604080832073ffffffffffffffffffffffffffffffffffffffff949094168352929052205490565b6040519081526020015b60405180910390f35b61020f61020a36600461232c565b61046d565b60405190151581526020016101f3565b61022761047e565b6040516101f391906123bb565b61020f6102423660046122d1565b610510565b6102276102553660046123ce565b610526565b6000805260066020527f54cdd369e4e8a8515e52ca72ec816c2101831ad1f18bf44102ed171459c9b4f8546101e9565b61020f6102983660046123e7565b6105ba565b61020f6102ab366004612423565b73ffffffffffffffffffffffffffffffffffffffff1660009081526009602052604090205460ff1690565b6102e96102e43660046125d9565b6107b2565b005b604051601281526020016101f3565b6102e9610308366004612683565b610880565b61032061031b3660046126bf565b610a83565b6040516101f391906127ba565b60016101e9565b6101e9610342366004612423565b610be4565b6102e96103553660046127cd565b610c2e565b610227610f53565b610320610f62565b6102e9610378366004612683565b610fb9565b61020f61038b3660046122d1565b611146565b6101e961039e3660046123ce565b60009081526006602052604090205490565b6101e96103be36600461282e565b73ffffffffffffffffffffffffffffffffffffffff918216600090815260036020908152604080832093909416825291909152205490565b6102276111e2565b61020f61040c36600461282e565b73ffffffffffffffffffffffffffffffffffffffff918216600090815260056020908152604080832093909416825291909152205460ff1690565b6102e9610455366004612861565b611270565b6102e96104683660046128c6565b611337565b600061047882611401565b92915050565b60606000805461048d906128f9565b80601f01602080910402602001604051908101604052809291908181526020018280546104b9906128f9565b80156105065780601f106104db57610100808354040283529160200191610506565b820191906000526020600020905b8154815290600101906020018083116104e957829003601f168201915b5050505050905090565b600061051d3384846114e4565b50600192915050565b606060028054610535906128f9565b80601f0160208091040260200160405190810160405280929190818152602001828054610561906128f9565b80156105ae5780601f10610583576101008083540402835291602001916105ae565b820191906000526020600020905b81548152906001019060200180831161059157829003601f168201915b50505050509050919050565b600073ffffffffffffffffffffffffffffffffffffffff831661063e576040517f08c379a000000000000000000000000000000000000000000000000000000000815260206004820152600960248201527f302061646472657373000000000000000000000000000000000000000000000060448201526064015b60405180910390fd5b73ffffffffffffffffffffffffffffffffffffffff84166106bb576040517f08c379a000000000000000000000000000000000000000000000000000000000815260206004820152600960248201527f30206164647265737300000000000000000000000000000000000000000000006044820152606401610635565b73ffffffffffffffffffffffffffffffffffffffff841660009081526003602090815260408083203384529091529020547fffffffffffffffffffffffffffffffffffffffffffffffffffffffffffffffff811461078a578281101561077d576040517f08c379a000000000000000000000000000000000000000000000000000000000815260206004820152601160248201527f6578636565647320616c6c6f77616e63650000000000000000000000000000006044820152606401610635565b61078a85338584036114e4565b6107a785856000866040518060200160405280600081525061164c565b506001949350505050565b73ffffffffffffffffffffffffffffffffffffffff8516331480610806575073ffffffffffffffffffffffffffffffffffffffff8516600090815260056020908152604080832033845290915290205460ff165b61086c576040517f08c379a000000000000000000000000000000000000000000000000000000000815260206004820152600c60248201527f6e6f7420617070726f76656400000000000000000000000000000000000000006044820152606401610635565b610879858585858561188f565b5050505050565b3360009081526009602052604090205460ff166108f9576040517f08c379a000000000000000000000000000000000000000000000000000000000815260206004820152600960248201527f6e6f742061646d696e00000000000000000000000000000000000000000000006044820152606401610635565b3373ffffffffffffffffffffffffffffffffffffffff83161415610979576040517f08c379a000000000000000000000000000000000000000000000000000000000815260206004820152601160248201527f617070726f76616c20666f722073656c660000000000000000000000000000006044820152606401610635565b73ffffffffffffffffffffffffffffffffffffffff82166109f6576040517f08c379a000000000000000000000000000000000000000000000000000000000815260206004820152601660248201527f617070726f76616c20666f7220302061646472657373000000000000000000006044820152606401610635565b73ffffffffffffffffffffffffffffffffffffffff821660008181526009602090815260409182902080547fffffffffffffffffffffffffffffffffffffffffffffffffffffffffffffff0016851515908117909155915191825233917fe070d47b9b615c9dcd997724829d678ba27bc2dcd4d3b249c59e703a912691ab91015b60405180910390a35050565b60608151835114610af0576040517f08c379a000000000000000000000000000000000000000000000000000000000815260206004820152600f60248201527f6c656e677468206d69736d6174636800000000000000000000000000000000006044820152606401610635565b6000835167ffffffffffffffff811115610b0c57610b0c61243e565b604051908082528060200260200182016040528015610b35578160200160208202803683370190505b50905060005b8451811015610bdc57610baf858281518110610b5957610b5961294d565b6020026020010151858381518110610b7357610b7361294d565b6020026020010151600090815260046020908152604080832073ffffffffffffffffffffffffffffffffffffffff949094168352929052205490565b828281518110610bc157610bc161294d565b6020908102919091010152610bd5816129ab565b9050610b3b565b509392505050565b73ffffffffffffffffffffffffffffffffffffffff811660009081527f17ef568e3e12ab5b9c7254a8d58478811de00f9e6eb34345acd53bf8fd09d3ec6020526040812054610478565b3360009081526009602052604090205460ff16610ca7576040517f08c379a000000000000000000000000000000000000000000000000000000000815260206004820152600960248201527f6e6f742061646d696e00000000000000000000000000000000000000000000006044820152606401610635565b600083815260066020526040812054610cc19084906129e4565b905083610d43576b43dacaf91c1a84ff08000000811115610d3e576040517f08c379a000000000000000000000000000000000000000000000000000000000815260206004820152601160248201527f657863656564206d617820737570706c790000000000000000000000000000006044820152606401610635565b610ebe565b6201f0228410158015610d5957506201f0298411155b15610dc9576001811115610d3e576040517f08c379a000000000000000000000000000000000000000000000000000000000815260206004820152600b60248201527f6f6e6c7920312074696c650000000000000000000000000000000000000000006044820152606401610635565b6201f0008410158015610ddf57506201f02a8411155b15610e4f576004811115610d3e576040517f08c379a000000000000000000000000000000000000000000000000000000000815260206004820152600c60248201527f6f6e6c7920342074696c657300000000000000000000000000000000000000006044820152606401610635565b6404e3b29200811115610ebe576040517f08c379a000000000000000000000000000000000000000000000000000000000815260206004820152601160248201527f657863656564206d617820737570706c790000000000000000000000000000006044820152606401610635565b610eca85858585611b51565b60005b600854811015610f15578460088281548110610eeb57610eeb61294d565b90600052602060002001541415610f03575050610f4d565b80610f0d816129ab565b915050610ecd565b5050600880546001810182556000919091527ff3f7a9fe364faab93b216da50a3214154f22a0a2b415b23a84c8169e8b636ee3018390555b50505050565b60606001805461048d906128f9565b6060600880548060200260200160405190810160405280929190818152602001828054801561050657602002820191906000526020600020905b815481526020019060010190808311610f9c575050505050905090565b3373ffffffffffffffffffffffffffffffffffffffff83161415611039576040517f08c379a000000000000000000000000000000000000000000000000000000000815260206004820152601160248201527f617070726f76616c20666f722073656c660000000000000000000000000000006044820152606401610635565b73ffffffffffffffffffffffffffffffffffffffff82166110b6576040517f08c379a000000000000000000000000000000000000000000000000000000000815260206004820152600e60248201527f617070726f76616c20666f7220300000000000000000000000000000000000006044820152606401610635565b33600081815260056020908152604080832073ffffffffffffffffffffffffffffffffffffffff87168085529083529281902080547fffffffffffffffffffffffffffffffffffffffffffffffffffffffffffffff001686151590811790915590519081529192917f17307eab39ab6107e8899845ad3d59bd9653f200f220920489ca2b5937696c319101610a77565b600073ffffffffffffffffffffffffffffffffffffffff83166111c5576040517f08c379a000000000000000000000000000000000000000000000000000000000815260206004820152600960248201527f30206164647265737300000000000000000000000000000000000000000000006044820152606401610635565b61051d33846000856040518060200160405280600081525061164c565b600780546111ef906128f9565b80601f016020809104026020016040519081016040528092919081815260200182805461121b906128f9565b80156112685780601f1061123d57610100808354040283529160200191611268565b820191906000526020600020905b81548152906001019060200180831161124b57829003601f168201915b505050505081565b73ffffffffffffffffffffffffffffffffffffffff85163314806112c4575073ffffffffffffffffffffffffffffffffffffffff8516600090815260056020908152604080832033845290915290205460ff165b61132a576040517f08c379a000000000000000000000000000000000000000000000000000000000815260206004820152600c60248201527f6e6f7420617070726f76656400000000000000000000000000000000000000006044820152606401610635565b610879858585858561164c565b73ffffffffffffffffffffffffffffffffffffffff831633148061138b575073ffffffffffffffffffffffffffffffffffffffff8316600090815260056020908152604080832033845290915290205460ff165b6113f1576040517f08c379a000000000000000000000000000000000000000000000000000000000815260206004820152601660248201527f6e6f74206f776e6572206e6f7220617070726f766564000000000000000000006044820152606401610635565b6113fc838383611c92565b505050565b60007fffffffff0000000000000000000000000000000000000000000000000000000082167fd9b67a2600000000000000000000000000000000000000000000000000000000148061149457507fffffffff0000000000000000000000000000000000000000000000000000000082167f0e89341c00000000000000000000000000000000000000000000000000000000145b8061047857507f01ffc9a7000000000000000000000000000000000000000000000000000000007fffffffff00000000000000000000000000000000000000000000000000000000831614610478565b73ffffffffffffffffffffffffffffffffffffffff8316611561576040517f08c379a000000000000000000000000000000000000000000000000000000000815260206004820152600960248201527f30206164647265737300000000000000000000000000000000000000000000006044820152606401610635565b73ffffffffffffffffffffffffffffffffffffffff82166115de576040517f08c379a000000000000000000000000000000000000000000000000000000000815260206004820152600960248201527f30206164647265737300000000000000000000000000000000000000000000006044820152606401610635565b73ffffffffffffffffffffffffffffffffffffffff83811660008181526003602090815260408083209487168084529482529182902085905590518481527f8c5be1e5ebec7d5bd14f71427d1e84f3dd0314c0f7b2291e5b200ac8c7c3b925910160405180910390a3505050565b73ffffffffffffffffffffffffffffffffffffffff84166116c9576040517f08c379a000000000000000000000000000000000000000000000000000000000815260206004820152600960248201527f30206164647265737300000000000000000000000000000000000000000000006044820152606401610635565b600083815260046020908152604080832073ffffffffffffffffffffffffffffffffffffffff8916845290915290205482811015611763576040517f08c379a000000000000000000000000000000000000000000000000000000000815260206004820152601460248201527f696e73756666696369656e742062616c616e63650000000000000000000000006044820152606401610635565b600084815260046020908152604080832073ffffffffffffffffffffffffffffffffffffffff8a81168552925280832086850390559087168252812080548592906117af9084906129e4565b9091555050604080518581526020810185905273ffffffffffffffffffffffffffffffffffffffff808816929089169133917fc3d58168c5ae7397731d063d5bbf3d657854427343f4c083240f7aacaa2d0f62910160405180910390a483611879578473ffffffffffffffffffffffffffffffffffffffff168673ffffffffffffffffffffffffffffffffffffffff167fddf252ad1be2c89b69c2b068fc378daa952ba7f163c4a11628f55a4df523b3ef8560405161187091815260200190565b60405180910390a35b611887338787878787611e7f565b505050505050565b81518351146118fa576040517f08c379a000000000000000000000000000000000000000000000000000000000815260206004820152600f60248201527f6c656e677468206d69736d6174636800000000000000000000000000000000006044820152606401610635565b73ffffffffffffffffffffffffffffffffffffffff8416611977576040517f08c379a000000000000000000000000000000000000000000000000000000000815260206004820152600960248201527f30206164647265737300000000000000000000000000000000000000000000006044820152606401610635565b60005b8351811015611ac45760008482815181106119975761199761294d565b6020026020010151905060008483815181106119b5576119b561294d565b602090810291909101810151600084815260048352604080822073ffffffffffffffffffffffffffffffffffffffff8d168352909352919091205490915081811015611a5d576040517f08c379a000000000000000000000000000000000000000000000000000000000815260206004820152601460248201527f696e73756666696369656e742062616c616e63650000000000000000000000006044820152606401610635565b600083815260046020908152604080832073ffffffffffffffffffffffffffffffffffffffff8d8116855292528083208585039055908a16825281208054849290611aa99084906129e4565b9250508190555050505080611abd906129ab565b905061197a565b508373ffffffffffffffffffffffffffffffffffffffff168573ffffffffffffffffffffffffffffffffffffffff163373ffffffffffffffffffffffffffffffffffffffff167f4a39dc06d4c0dbc64b70af90fd698a233a518aa5d07e595d983b8c0526c8f7fb8686604051611b3b9291906129fc565b60405180910390a4610879338686868686612062565b73ffffffffffffffffffffffffffffffffffffffff8416611bce576040517f08c379a000000000000000000000000000000000000000000000000000000000815260206004820152600960248201527f30206164647265737300000000000000000000000000000000000000000000006044820152606401610635565b611bd984848461223c565b604080518481526020810184905273ffffffffffffffffffffffffffffffffffffffff86169160009133917fc3d58168c5ae7397731d063d5bbf3d657854427343f4c083240f7aacaa2d0f62910160405180910390a482611c835760405182815273ffffffffffffffffffffffffffffffffffffffff8516906000907fddf252ad1be2c89b69c2b068fc378daa952ba7f163c4a11628f55a4df523b3ef9060200160405180910390a35b610f4d33600086868686611e7f565b73ffffffffffffffffffffffffffffffffffffffff8316611d0f576040517f08c379a000000000000000000000000000000000000000000000000000000000815260206004820152600960248201527f30206164647265737300000000000000000000000000000000000000000000006044820152606401610635565b600082815260046020908152604080832073ffffffffffffffffffffffffffffffffffffffff8716845290915290205481811015611da9576040517f08c379a000000000000000000000000000000000000000000000000000000000815260206004820152600f60248201527f657863656564732062616c616e636500000000000000000000000000000000006044820152606401610635565b6000838152600660209081526040808320805486900390556004825280832073ffffffffffffffffffffffffffffffffffffffff8816808552908352818420868603905581518781529283018690529133917fc3d58168c5ae7397731d063d5bbf3d657854427343f4c083240f7aacaa2d0f62910160405180910390a482610f4d5760405182815260009073ffffffffffffffffffffffffffffffffffffffff8616907fddf252ad1be2c89b69c2b068fc378daa952ba7f163c4a11628f55a4df523b3ef9060200160405180910390a350505050565b833b15611887576040517ff23a6e6100000000000000000000000000000000000000000000000000000000815273ffffffffffffffffffffffffffffffffffffffff85169063f23a6e6190611ee09089908990889088908890600401612a2a565b602060405180830381600087803b158015611efa57600080fd5b505af1925050508015611f48575060408051601f3d9081017fffffffffffffffffffffffffffffffffffffffffffffffffffffffffffffffe0168201909252611f4591810190612a7a565b60015b611fae576040517f08c379a000000000000000000000000000000000000000000000000000000000815260206004820152601360248201527f6e6f6e20455243313135355265636569766572000000000000000000000000006044820152606401610635565b7fffffffff0000000000000000000000000000000000000000000000000000000081167ff23a6e610000000000000000000000000000000000000000000000000000000014612059576040517f08c379a000000000000000000000000000000000000000000000000000000000815260206004820152601860248201527f4552433131353552656365697665722072656a656374656400000000000000006044820152606401610635565b50505050505050565b833b15611887576040517fbc197c8100000000000000000000000000000000000000000000000000000000815273ffffffffffffffffffffffffffffffffffffffff85169063bc197c81906120c39089908990889088908890600401612a97565b602060405180830381600087803b1580156120dd57600080fd5b505af192505050801561212b575060408051601f3d9081017fffffffffffffffffffffffffffffffffffffffffffffffffffffffffffffffe016820190925261212891810190612a7a565b60015b612191576040517f08c379a000000000000000000000000000000000000000000000000000000000815260206004820152601360248201527f6e6f6e20455243313135355265636569766572000000000000000000000000006044820152606401610635565b7fffffffff0000000000000000000000000000000000000000000000000000000081167fbc197c810000000000000000000000000000000000000000000000000000000014612059576040517f08c379a000000000000000000000000000000000000000000000000000000000815260206004820152601860248201527f4552433131353552656365697665722072656a656374656400000000000000006044820152606401610635565b6000828152600660205260408120805483929061225a9084906129e4565b9091555050600082815260046020908152604080832073ffffffffffffffffffffffffffffffffffffffff871684529091528120805483929061229e9084906129e4565b9091555050505050565b803573ffffffffffffffffffffffffffffffffffffffff811681146122cc57600080fd5b919050565b600080604083850312156122e457600080fd5b6122ed836122a8565b946020939093013593505050565b7fffffffff000000000000000000000000000000000000000000000000000000008116811461232957600080fd5b50565b60006020828403121561233e57600080fd5b8135612349816122fb565b9392505050565b6000815180845260005b818110156123765760208185018101518683018201520161235a565b81811115612388576000602083870101525b50601f017fffffffffffffffffffffffffffffffffffffffffffffffffffffffffffffffe0169290920160200192915050565b6020815260006123496020830184612350565b6000602082840312156123e057600080fd5b5035919050565b6000806000606084860312156123fc57600080fd5b612405846122a8565b9250612413602085016122a8565b9150604084013590509250925092565b60006020828403121561243557600080fd5b612349826122a8565b7f4e487b7100000000000000000000000000000000000000000000000000000000600052604160045260246000fd5b604051601f82017fffffffffffffffffffffffffffffffffffffffffffffffffffffffffffffffe016810167ffffffffffffffff811182821017156124b4576124b461243e565b604052919050565b600067ffffffffffffffff8211156124d6576124d661243e565b5060051b60200190565b600082601f8301126124f157600080fd5b81356020612506612501836124bc565b61246d565b82815260059290921b8401810191818101908684111561252557600080fd5b8286015b848110156125405780358352918301918301612529565b509695505050505050565b600082601f83011261255c57600080fd5b813567ffffffffffffffff8111156125765761257661243e565b6125a760207fffffffffffffffffffffffffffffffffffffffffffffffffffffffffffffffe0601f8401160161246d565b8181528460208386010111156125bc57600080fd5b816020850160208301376000918101602001919091529392505050565b600080600080600060a086880312156125f157600080fd5b6125fa866122a8565b9450612608602087016122a8565b9350604086013567ffffffffffffffff8082111561262557600080fd5b61263189838a016124e0565b9450606088013591508082111561264757600080fd5b61265389838a016124e0565b9350608088013591508082111561266957600080fd5b506126768882890161254b565b9150509295509295909350565b6000806040838503121561269657600080fd5b61269f836122a8565b9150602083013580151581146126b457600080fd5b809150509250929050565b600080604083850312156126d257600080fd5b823567ffffffffffffffff808211156126ea57600080fd5b818501915085601f8301126126fe57600080fd5b8135602061270e612501836124bc565b82815260059290921b8401810191818101908984111561272d57600080fd5b948201945b8386101561275257612743866122a8565b82529482019490820190612732565b9650508601359250508082111561276857600080fd5b50612775858286016124e0565b9150509250929050565b600081518084526020808501945080840160005b838110156127af57815187529582019590820190600101612793565b509495945050505050565b602081526000612349602083018461277f565b600080600080608085870312156127e357600080fd5b6127ec856122a8565b93506020850135925060408501359150606085013567ffffffffffffffff81111561281657600080fd5b6128228782880161254b565b91505092959194509250565b6000806040838503121561284157600080fd5b61284a836122a8565b9150612858602084016122a8565b90509250929050565b600080600080600060a0868803121561287957600080fd5b612882866122a8565b9450612890602087016122a8565b93506040860135925060608601359150608086013567ffffffffffffffff8111156128ba57600080fd5b6126768882890161254b565b6000806000606084860312156128db57600080fd5b6128e4846122a8565b95602085013595506040909401359392505050565b600181811c9082168061290d57607f821691505b60208210811415612947577f4e487b7100000000000000000000000000000000000000000000000000000000600052602260045260246000fd5b50919050565b7f4e487b7100000000000000000000000000000000000000000000000000000000600052603260045260246000fd5b7f4e487b7100000000000000000000000000000000000000000000000000000000600052601160045260246000fd5b60007fffffffffffffffffffffffffffffffffffffffffffffffffffffffffffffffff8214156129dd576129dd61297c565b5060010190565b600082198211156129f7576129f761297c565b500190565b604081526000612a0f604083018561277f565b8281036020840152612a21818561277f565b95945050505050565b600073ffffffffffffffffffffffffffffffffffffffff808816835280871660208401525084604083015283606083015260a06080830152612a6f60a0830184612350565b979650505050505050565b600060208284031215612a8c57600080fd5b8151612349816122fb565b600073ffffffffffffffffffffffffffffffffffffffff808816835280871660208401525060a06040830152612ad060a083018661277f565b8281036060840152612ae2818661277f565b90508281036080840152612af68185612350565b9897505050505050505056fea264697066735822122039b57c96f0b17a2e292da661b1f5abb6358cc399347e7198250fa66536e9213a64736f6c6343000809003368747470733a2f2f7777772e6d61686a2e7669702f6d6574612f7b69647d2e6a736f6ef3f7a9fe364faab93b216da50a3214154f22a0a2b415b23a84c8169e8b636ee3",
  "linkReferences": {},
  "deployedLinkReferences": {}
}