{
  "_format": "hh-sol-artifact-1",
  "contractName": "Mahjong",
  "sourceName": "contracts/Mahjong.sol",
  "abi": [
    {
      "inputs": [],
      "stateMutability": "nonpayable",
      "type": "constructor"
    },
    {
      "anonymous": false,
      "inputs": [
        {
          "indexed": true,
          "internalType": "address",
          "name": "owner",
          "type": "address"
        },
        {
          "indexed": true,
          "internalType": "address",
          "name": "spender",
          "type": "address"
        },
        {
          "indexed": false,
          "internalType": "uint256",
          "name": "value",
          "type": "uint256"
        }
      ],
      "name": "Approval",
      "type": "event"
    },
    {
      "anonymous": false,
      "inputs": [
        {
          "indexed": true,
          "internalType": "address",
          "name": "account",
          "type": "address"
        },
        {
          "indexed": true,
          "internalType": "address",
          "name": "operator",
          "type": "address"
        },
        {
          "indexed": false,
          "internalType": "bool",
          "name": "approved",
          "type": "bool"
        }
      ],
      "name": "ApprovalForAll",
      "type": "event"
    },
    {
      "anonymous": false,
      "inputs": [
        {
          "indexed": true,
          "internalType": "address",
          "name": "previousOwner",
          "type": "address"
        },
        {
          "indexed": true,
          "internalType": "address",
          "name": "newOwner",
          "type": "address"
        }
      ],
      "name": "OwnershipTransferred",
      "type": "event"
    },
    {
      "anonymous": false,
      "inputs": [
        {
          "indexed": true,
          "internalType": "address",
          "name": "from",
          "type": "address"
        },
        {
          "indexed": true,
          "internalType": "address",
          "name": "to",
          "type": "address"
        },
        {
          "indexed": false,
          "internalType": "uint256",
          "name": "value",
          "type": "uint256"
        }
      ],
      "name": "Transfer",
      "type": "event"
    },
    {
      "anonymous": false,
      "inputs": [
        {
          "indexed": true,
          "internalType": "address",
          "name": "operator",
          "type": "address"
        },
        {
          "indexed": true,
          "internalType": "address",
          "name": "from",
          "type": "address"
        },
        {
          "indexed": true,
          "internalType": "address",
          "name": "to",
          "type": "address"
        },
        {
          "indexed": false,
          "internalType": "uint256[]",
          "name": "ids",
          "type": "uint256[]"
        },
        {
          "indexed": false,
          "internalType": "uint256[]",
          "name": "values",
          "type": "uint256[]"
        }
      ],
      "name": "TransferBatch",
      "type": "event"
    },
    {
      "anonymous": false,
      "inputs": [
        {
          "indexed": true,
          "internalType": "address",
          "name": "operator",
          "type": "address"
        },
        {
          "indexed": true,
          "internalType": "address",
          "name": "from",
          "type": "address"
        },
        {
          "indexed": true,
          "internalType": "address",
          "name": "to",
          "type": "address"
        },
        {
          "indexed": false,
          "internalType": "uint256",
          "name": "id",
          "type": "uint256"
        },
        {
          "indexed": false,
          "internalType": "uint256",
          "name": "value",
          "type": "uint256"
        }
      ],
      "name": "TransferSingle",
      "type": "event"
    },
    {
      "anonymous": false,
      "inputs": [
        {
          "indexed": false,
          "internalType": "string",
          "name": "value",
          "type": "string"
        },
        {
          "indexed": true,
          "internalType": "uint256",
          "name": "id",
          "type": "uint256"
        }
      ],
      "name": "URI",
      "type": "event"
    },
    {
      "inputs": [
        {
          "internalType": "address",
          "name": "holder",
          "type": "address"
        },
        {
          "internalType": "address",
          "name": "spender",
          "type": "address"
        }
      ],
      "name": "allowance",
      "outputs": [
        {
          "internalType": "uint256",
          "name": "",
          "type": "uint256"
        }
      ],
      "stateMutability": "view",
      "type": "function"
    },
    {
      "inputs": [
        {
          "internalType": "address",
          "name": "spender",
          "type": "address"
        },
        {
          "internalType": "uint256",
          "name": "value",
          "type": "uint256"
        }
      ],
      "name": "approve",
      "outputs": [
        {
          "internalType": "bool",
          "name": "",
          "type": "bool"
        }
      ],
      "stateMutability": "nonpayable",
      "type": "function"
    },
    {
      "inputs": [
        {
          "internalType": "address",
          "name": "account",
          "type": "address"
        },
        {
          "internalType": "uint256",
          "name": "id",
          "type": "uint256"
        }
      ],
      "name": "balanceOf",
      "outputs": [
        {
          "internalType": "uint256",
          "name": "",
          "type": "uint256"
        }
      ],
      "stateMutability": "view",
      "type": "function"
    },
    {
      "inputs": [
        {
          "internalType": "address",
          "name": "account",
          "type": "address"
        }
      ],
      "name": "balanceOf",
      "outputs": [
        {
          "internalType": "uint256",
          "name": "",
          "type": "uint256"
        }
      ],
      "stateMutability": "view",
      "type": "function"
    },
    {
      "inputs": [
        {
          "internalType": "address[]",
          "name": "accounts",
          "type": "address[]"
        },
        {
          "internalType": "uint256[]",
          "name": "ids",
          "type": "uint256[]"
        }
      ],
      "name": "balanceOfBatch",
      "outputs": [
        {
          "internalType": "uint256[]",
          "name": "",
          "type": "uint256[]"
        }
      ],
      "stateMutability": "view",
      "type": "function"
    },
    {
      "inputs": [
        {
          "internalType": "address",
          "name": "account",
          "type": "address"
        },
        {
          "internalType": "uint256",
          "name": "id",
          "type": "uint256"
        },
        {
          "internalType": "uint256",
          "name": "value",
          "type": "uint256"
        }
      ],
      "name": "burn",
      "outputs": [],
      "stateMutability": "nonpayable",
      "type": "function"
    },
    {
      "inputs": [],
      "name": "contractURI",
      "outputs": [
        {
          "internalType": "string",
          "name": "",
          "type": "string"
        }
      ],
      "stateMutability": "view",
      "type": "function"
    },
    {
      "inputs": [],
      "name": "decimals",
      "outputs": [
        {
          "internalType": "uint8",
          "name": "",
          "type": "uint8"
        }
      ],
      "stateMutability": "pure",
      "type": "function"
    },
    {
      "inputs": [],
      "name": "granularity",
      "outputs": [
        {
          "internalType": "uint256",
          "name": "",
          "type": "uint256"
        }
      ],
      "stateMutability": "pure",
      "type": "function"
    },
    {
      "inputs": [
        {
          "internalType": "address",
          "name": "account",
          "type": "address"
        },
        {
          "internalType": "address",
          "name": "operator",
          "type": "address"
        }
      ],
      "name": "isApprovedForAll",
      "outputs": [
        {
          "internalType": "bool",
          "name": "",
          "type": "bool"
        }
      ],
      "stateMutability": "view",
      "type": "function"
    },
    {
      "inputs": [
        {
          "internalType": "address",
          "name": "to",
          "type": "address"
        },
        {
          "internalType": "uint256",
          "name": "id",
          "type": "uint256"
        },
        {
          "internalType": "uint256",
          "name": "amount",
          "type": "uint256"
        },
        {
          "internalType": "bytes",
          "name": "userData",
          "type": "bytes"
        }
      ],
      "name": "mint",
      "outputs": [],
      "stateMutability": "nonpayable",
      "type": "function"
    },
    {
      "inputs": [],
      "name": "name",
      "outputs": [
        {
          "internalType": "string",
          "name": "",
          "type": "string"
        }
      ],
      "stateMutability": "view",
      "type": "function"
    },
    {
      "inputs": [],
      "name": "owner",
      "outputs": [
        {
          "internalType": "address",
          "name": "",
          "type": "address"
        }
      ],
      "stateMutability": "view",
      "type": "function"
    },
    {
      "inputs": [],
      "name": "renounceOwnership",
      "outputs": [],
      "stateMutability": "nonpayable",
      "type": "function"
    },
    {
      "inputs": [
        {
          "internalType": "address",
          "name": "from",
          "type": "address"
        },
        {
          "internalType": "address",
          "name": "to",
          "type": "address"
        },
        {
          "internalType": "uint256[]",
          "name": "ids",
          "type": "uint256[]"
        },
        {
          "internalType": "uint256[]",
          "name": "amounts",
          "type": "uint256[]"
        },
        {
          "internalType": "bytes",
          "name": "data",
          "type": "bytes"
        }
      ],
      "name": "safeBatchTransferFrom",
      "outputs": [],
      "stateMutability": "nonpayable",
      "type": "function"
    },
    {
      "inputs": [
        {
          "internalType": "address",
          "name": "from",
          "type": "address"
        },
        {
          "internalType": "address",
          "name": "to",
          "type": "address"
        },
        {
          "internalType": "uint256",
          "name": "id",
          "type": "uint256"
        },
        {
          "internalType": "uint256",
          "name": "amount",
          "type": "uint256"
        },
        {
          "internalType": "bytes",
          "name": "data",
          "type": "bytes"
        }
      ],
      "name": "safeTransferFrom",
      "outputs": [],
      "stateMutability": "nonpayable",
      "type": "function"
    },
    {
      "inputs": [
        {
          "internalType": "address",
          "name": "operator",
          "type": "address"
        },
        {
          "internalType": "bool",
          "name": "approved",
          "type": "bool"
        }
      ],
      "name": "setApprovalForAll",
      "outputs": [],
      "stateMutability": "nonpayable",
      "type": "function"
    },
    {
      "inputs": [
        {
          "internalType": "bytes4",
          "name": "interfaceId",
          "type": "bytes4"
        }
      ],
      "name": "supportsInterface",
      "outputs": [
        {
          "internalType": "bool",
          "name": "",
          "type": "bool"
        }
      ],
      "stateMutability": "view",
      "type": "function"
    },
    {
      "inputs": [],
      "name": "symbol",
      "outputs": [
        {
          "internalType": "string",
          "name": "",
          "type": "string"
        }
      ],
      "stateMutability": "view",
      "type": "function"
    },
    {
      "inputs": [],
      "name": "tokens",
      "outputs": [
        {
          "internalType": "uint256[]",
          "name": "",
          "type": "uint256[]"
        }
      ],
      "stateMutability": "view",
      "type": "function"
    },
    {
      "inputs": [],
      "name": "totalSupply",
      "outputs": [
        {
          "internalType": "uint256",
          "name": "",
          "type": "uint256"
        }
      ],
      "stateMutability": "view",
      "type": "function"
    },
    {
      "inputs": [
        {
          "internalType": "uint256",
          "name": "id",
          "type": "uint256"
        }
      ],
      "name": "totalSupply",
      "outputs": [
        {
          "internalType": "uint256",
          "name": "",
          "type": "uint256"
        }
      ],
      "stateMutability": "view",
      "type": "function"
    },
    {
      "inputs": [
        {
          "internalType": "address",
          "name": "recipient",
          "type": "address"
        },
        {
          "internalType": "uint256",
          "name": "amount",
          "type": "uint256"
        }
      ],
      "name": "transfer",
      "outputs": [
        {
          "internalType": "bool",
          "name": "",
          "type": "bool"
        }
      ],
      "stateMutability": "nonpayable",
      "type": "function"
    },
    {
      "inputs": [
        {
          "internalType": "address",
          "name": "holder",
          "type": "address"
        },
        {
          "internalType": "address",
          "name": "recipient",
          "type": "address"
        },
        {
          "internalType": "uint256",
          "name": "amount",
          "type": "uint256"
        }
      ],
      "name": "transferFrom",
      "outputs": [
        {
          "internalType": "bool",
          "name": "",
          "type": "bool"
        }
      ],
      "stateMutability": "nonpayable",
      "type": "function"
    },
    {
      "inputs": [
        {
          "internalType": "address",
          "name": "newOwner",
          "type": "address"
        }
      ],
      "name": "transferOwnership",
      "outputs": [],
      "stateMutability": "nonpayable",
      "type": "function"
    },
    {
      "inputs": [
        {
          "internalType": "uint256",
          "name": "",
          "type": "uint256"
        }
      ],
      "name": "uri",
      "outputs": [
        {
          "internalType": "string",
          "name": "",
          "type": "string"
        }
      ],
      "stateMutability": "view",
      "type": "function"
    }
  ],
  "bytecode": "0x60c0604052601960808190527f68747470733a2f2f7777772e6d61686a2e7669702f6d6574610000000000000060a0908152620000409160089190620002e0565b503480156200004e57600080fd5b506040518060400160405280600e81526020016d4d61686a6f6e6720546f6b656e7360901b8152506040518060400160405280600481526020016326a0a42560e11b815250604051806060016040528060238152602001620029b360239139620000b8336200022d565b8251620000cd906001906020860190620002e0565b508151620000e3906002906020850190620002e0565b508051620000f9906003906020840190620002e0565b505050506200011d3360006b033b2e3c9fd0803ce80000006200027d60201b60201c565b600980546001810182556000918252600080516020620029d683398151915201556201f0005b6201f021811162000195576200015c338260046200027d565b60098054600181018255600091909152600080516020620029d683398151915201819055806200018c816200039c565b91505062000143565b506201f0225b6201f0298111620001ed57620001b4338260016200027d565b60098054600181018255600091909152600080516020620029d68339815191520181905580620001e4816200039c565b9150506200019b565b50620001ff336201f02a60046200027d565b600980546001810182556000919091526201f02a600080516020620029d68339815191529091015562000412565b600080546001600160a01b038381166001600160a01b0319831681178455604051919092169283917f8be0079c531659141344cd1fd0a4f28419497f9722a3daafe3b4186f6b6457e09190a35050565b600082815260076020526040812080548392906200029d908490620003ba565b909155505060008281526005602090815260408083206001600160a01b038716845290915281208054839290620002d6908490620003ba565b9091555050505050565b828054620002ee90620003d5565b90600052602060002090601f0160209004810192826200031257600085556200035d565b82601f106200032d57805160ff19168380011785556200035d565b828001600101855582156200035d579182015b828111156200035d57825182559160200191906001019062000340565b506200036b9291506200036f565b5090565b5b808211156200036b576000815560010162000370565b634e487b7160e01b600052601160045260246000fd5b6000600019821415620003b357620003b362000386565b5060010190565b60008219821115620003d057620003d062000386565b500190565b600181811c90821680620003ea57607f821691505b602082108114156200040c57634e487b7160e01b600052602260045260246000fd5b50919050565b61259180620004226000396000f3fe608060405234801561001057600080fd5b50600436106101ad5760003560e01c8063731133e9116100ee578063bd85b03911610097578063e985e9c511610071578063e985e9c5146103c6578063f242432a14610402578063f2fde38b14610415578063f5298aca1461042857600080fd5b8063bd85b03914610365578063dd62ed3e14610385578063e8a3d485146103be57600080fd5b80639d63848a116100c85780639d63848a14610337578063a22cb4651461033f578063a9059cbb1461035257600080fd5b8063731133e9146103015780638da5cb5b1461031457806395d89b411461032f57600080fd5b806323b872dd1161015b5780634e1273f4116101355780634e1273f4146102bf578063556f0dc7146102df57806370a08231146102e6578063715018a6146102f957600080fd5b806323b872dd146102885780632eb2c2d61461029b578063313ce567146102b057600080fd5b8063095ea7b31161018c578063095ea7b3146102325780630e89341c1461024557806318160ddd1461025857600080fd5b8062fdd58e146101b257806301ffc9a7146101fa57806306fdde031461021d575b600080fd5b6101e76101c0366004611d47565b60009081526005602090815260408083206001600160a01b03949094168352929052205490565b6040519081526020015b60405180910390f35b61020d610208366004611d9f565b61043b565b60405190151581526020016101f1565b61022561044c565b6040516101f19190611e2e565b61020d610240366004611d47565b6104de565b610225610253366004611e41565b6104f4565b6000805260076020527f6d5257204ebe7d88fd91ae87941cb2dd9d8062b64ae5a2bd2d28ec40b9fbf6df546101e7565b61020d610296366004611e5a565b610588565b6102ae6102a9366004612031565b61070b565b005b604051601281526020016101f1565b6102d26102cd3660046120db565b6107a5565b6040516101f191906121d6565b60016101e7565b6101e76102f43660046121e9565b6108df565b6102ae61091c565b6102ae61030f366004612204565b610982565b6000546040516001600160a01b0390911681526020016101f1565b610225610c20565b6102d2610c2f565b6102ae61034d366004612265565b610c86565b61020d610360366004611d47565b610dbf565b6101e7610373366004611e41565b60009081526007602052604090205490565b6101e76103933660046122a1565b6001600160a01b03918216600090815260046020908152604080832093909416825291909152205490565b610225610e34565b61020d6103d43660046122a1565b6001600160a01b03918216600090815260066020908152604080832093909416825291909152205460ff1690565b6102ae6104103660046122d4565b610ec2565b6102ae6104233660046121e9565b610f55565b6102ae610436366004612339565b611037565b6000610446826110cd565b92915050565b60606001805461045b9061236c565b80601f01602080910402602001604051908101604052809291908181526020018280546104879061236c565b80156104d45780601f106104a9576101008083540402835291602001916104d4565b820191906000526020600020905b8154815290600101906020018083116104b757829003601f168201915b5050505050905090565b60006104eb3384846111b0565b50600192915050565b6060600380546105039061236c565b80601f016020809104026020016040519081016040528092919081815260200182805461052f9061236c565b801561057c5780601f106105515761010080835404028352916020019161057c565b820191906000526020600020905b81548152906001019060200180831161055f57829003601f168201915b50505050509050919050565b60006001600160a01b0383166105e55760405162461bcd60e51b815260206004820152600960248201527f302061646472657373000000000000000000000000000000000000000000000060448201526064015b60405180910390fd5b6001600160a01b03841661063b5760405162461bcd60e51b815260206004820152600960248201527f302061646472657373000000000000000000000000000000000000000000000060448201526064016105dc565b6001600160a01b03841660009081526004602090815260408083203384529091529020547fffffffffffffffffffffffffffffffffffffffffffffffffffffffffffffffff81146106e357828110156106d65760405162461bcd60e51b815260206004820152601160248201527f6578636565647320616c6c6f77616e636500000000000000000000000000000060448201526064016105dc565b6106e385338584036111b0565b6107008585600086604051806020016040528060008152506112bd565b506001949350505050565b6001600160a01b03851633148061074557506001600160a01b038516600090815260066020908152604080832033845290915290205460ff165b6107915760405162461bcd60e51b815260206004820152600c60248201527f6e6f7420617070726f766564000000000000000000000000000000000000000060448201526064016105dc565b61079e858585858561147e565b5050505050565b606081518351146107f85760405162461bcd60e51b815260206004820152600f60248201527f6c656e677468206d69736d61746368000000000000000000000000000000000060448201526064016105dc565b6000835167ffffffffffffffff81111561081457610814611e96565b60405190808252806020026020018201604052801561083d578160200160208202803683370190505b50905060005b84518110156108d7576108aa858281518110610861576108616123c0565b602002602001015185838151811061087b5761087b6123c0565b602002602001015160009081526005602090815260408083206001600160a01b03949094168352929052205490565b8282815181106108bc576108bc6123c0565b60209081029190910101526108d08161241e565b9050610843565b509392505050565b6001600160a01b03811660009081527f05b8ccbb9d4d8fb16ea74ce3c29a41f1b461fbdaff4714a0d9a8eb05499746bc6020526040812054610446565b6000546001600160a01b031633146109765760405162461bcd60e51b815260206004820181905260248201527f4f776e61626c653a2063616c6c6572206973206e6f7420746865206f776e657260448201526064016105dc565b61098060006116a4565b565b6000546001600160a01b031633146109dc5760405162461bcd60e51b815260206004820181905260248201527f4f776e61626c653a2063616c6c6572206973206e6f7420746865206f776e657260448201526064016105dc565b6000838152600760205260408120546109f6908490612457565b905083610a5e576b43dacaf91c1a84ff08000000811115610a595760405162461bcd60e51b815260206004820152601160248201527f657863656564206d617820737570706c7900000000000000000000000000000060448201526064016105dc565b610b8b565b6201f0228410158015610a7457506201f0298411155b15610aca576001811115610a595760405162461bcd60e51b815260206004820152600b60248201527f6f6e6c7920312074696c6500000000000000000000000000000000000000000060448201526064016105dc565b6201f0008410158015610ae057506201f02a8411155b15610b36576004811115610a595760405162461bcd60e51b815260206004820152600c60248201527f6f6e6c7920342074696c6573000000000000000000000000000000000000000060448201526064016105dc565b6404e3b29200811115610b8b5760405162461bcd60e51b815260206004820152601160248201527f657863656564206d617820737570706c7900000000000000000000000000000060448201526064016105dc565b610b978585858561170c565b60005b600954811015610be2578460098281548110610bb857610bb86123c0565b90600052602060002001541415610bd0575050610c1a565b80610bda8161241e565b915050610b9a565b5050600980546001810182556000919091527f6e1540171b6c0c960b71a7020d9f60077f6af931a8bbf590da0223dacf75c7af018390555b50505050565b60606002805461045b9061236c565b606060098054806020026020016040519081016040528092919081815260200182805480156104d457602002820191906000526020600020905b815481526020019060010190808311610c69575050505050905090565b336001600160a01b0383161415610cdf5760405162461bcd60e51b815260206004820152601160248201527f617070726f76616c20666f722073656c6600000000000000000000000000000060448201526064016105dc565b6001600160a01b038216610d355760405162461bcd60e51b815260206004820152600e60248201527f617070726f76616c20666f72203000000000000000000000000000000000000060448201526064016105dc565b3360008181526006602090815260408083206001600160a01b0387168085529083529281902080547fffffffffffffffffffffffffffffffffffffffffffffffffffffffffffffff001686151590811790915590519081529192917f17307eab39ab6107e8899845ad3d59bd9653f200f220920489ca2b5937696c31910160405180910390a35050565b60006001600160a01b038316610e175760405162461bcd60e51b815260206004820152600960248201527f302061646472657373000000000000000000000000000000000000000000000060448201526064016105dc565b6104eb3384600085604051806020016040528060008152506112bd565b60088054610e419061236c565b80601f0160208091040260200160405190810160405280929190818152602001828054610e6d9061236c565b8015610eba5780601f10610e8f57610100808354040283529160200191610eba565b820191906000526020600020905b815481529060010190602001808311610e9d57829003601f168201915b505050505081565b6001600160a01b038516331480610efc57506001600160a01b038516600090815260066020908152604080832033845290915290205460ff165b610f485760405162461bcd60e51b815260206004820152600c60248201527f6e6f7420617070726f766564000000000000000000000000000000000000000060448201526064016105dc565b61079e85858585856112bd565b6000546001600160a01b03163314610faf5760405162461bcd60e51b815260206004820181905260248201527f4f776e61626c653a2063616c6c6572206973206e6f7420746865206f776e657260448201526064016105dc565b6001600160a01b03811661102b5760405162461bcd60e51b815260206004820152602660248201527f4f776e61626c653a206e6577206f776e657220697320746865207a65726f206160448201527f646472657373000000000000000000000000000000000000000000000000000060648201526084016105dc565b611034816116a4565b50565b6001600160a01b03831633148061107157506001600160a01b038316600090815260066020908152604080832033845290915290205460ff165b6110bd5760405162461bcd60e51b815260206004820152601660248201527f6e6f74206f776e6572206e6f7220617070726f7665640000000000000000000060448201526064016105dc565b6110c883838361180c565b505050565b60007fffffffff0000000000000000000000000000000000000000000000000000000082167fd9b67a2600000000000000000000000000000000000000000000000000000000148061116057507fffffffff0000000000000000000000000000000000000000000000000000000082167f0e89341c00000000000000000000000000000000000000000000000000000000145b8061044657507f01ffc9a7000000000000000000000000000000000000000000000000000000007fffffffff00000000000000000000000000000000000000000000000000000000831614610446565b6001600160a01b0383166112065760405162461bcd60e51b815260206004820152600960248201527f302061646472657373000000000000000000000000000000000000000000000060448201526064016105dc565b6001600160a01b03821661125c5760405162461bcd60e51b815260206004820152600960248201527f302061646472657373000000000000000000000000000000000000000000000060448201526064016105dc565b6001600160a01b0383811660008181526004602090815260408083209487168084529482529182902085905590518481527f8c5be1e5ebec7d5bd14f71427d1e84f3dd0314c0f7b2291e5b200ac8c7c3b925910160405180910390a3505050565b6001600160a01b0384166113135760405162461bcd60e51b815260206004820152600960248201527f302061646472657373000000000000000000000000000000000000000000000060448201526064016105dc565b60008381526005602090815260408083206001600160a01b0389168452909152902054828110156113865760405162461bcd60e51b815260206004820152601460248201527f696e73756666696369656e742062616c616e636500000000000000000000000060448201526064016105dc565b60008481526005602090815260408083206001600160a01b038a81168552925280832086850390559087168252812080548592906113c5908490612457565b909155505060408051858152602081018590526001600160a01b03808816929089169133917fc3d58168c5ae7397731d063d5bbf3d657854427343f4c083240f7aacaa2d0f62910160405180910390a48361146857846001600160a01b0316866001600160a01b03167fddf252ad1be2c89b69c2b068fc378daa952ba7f163c4a11628f55a4df523b3ef8560405161145f91815260200190565b60405180910390a35b611476338787878787611991565b505050505050565b81518351146114cf5760405162461bcd60e51b815260206004820152600f60248201527f6c656e677468206d69736d61746368000000000000000000000000000000000060448201526064016105dc565b6001600160a01b0384166115255760405162461bcd60e51b815260206004820152600960248201527f302061646472657373000000000000000000000000000000000000000000000060448201526064016105dc565b60005b835181101561163e576000848281518110611545576115456123c0565b602002602001015190506000848381518110611563576115636123c0565b60209081029190910181015160008481526005835260408082206001600160a01b038d1683529093529190912054909150818110156115e45760405162461bcd60e51b815260206004820152601460248201527f696e73756666696369656e742062616c616e636500000000000000000000000060448201526064016105dc565b60008381526005602090815260408083206001600160a01b038d8116855292528083208585039055908a16825281208054849290611623908490612457565b92505081905550505050806116379061241e565b9050611528565b50836001600160a01b0316856001600160a01b0316336001600160a01b03167f4a39dc06d4c0dbc64b70af90fd698a233a518aa5d07e595d983b8c0526c8f7fb868660405161168e92919061246f565b60405180910390a461079e338686868686611b33565b600080546001600160a01b038381167fffffffffffffffffffffffff0000000000000000000000000000000000000000831681178455604051919092169283917f8be0079c531659141344cd1fd0a4f28419497f9722a3daafe3b4186f6b6457e09190a35050565b6001600160a01b0384166117625760405162461bcd60e51b815260206004820152600960248201527f302061646472657373000000000000000000000000000000000000000000000060448201526064016105dc565b61176d848484611ccc565b60408051848152602081018490526001600160a01b0386169160009133917fc3d58168c5ae7397731d063d5bbf3d657854427343f4c083240f7aacaa2d0f62910160405180910390a4826117fd576040518281526001600160a01b038516906000907fddf252ad1be2c89b69c2b068fc378daa952ba7f163c4a11628f55a4df523b3ef9060200160405180910390a35b610c1a33600086868686611991565b6001600160a01b0383166118625760405162461bcd60e51b815260206004820152600960248201527f302061646472657373000000000000000000000000000000000000000000000060448201526064016105dc565b60008281526005602090815260408083206001600160a01b0387168452909152902054818110156118d55760405162461bcd60e51b815260206004820152600f60248201527f657863656564732062616c616e6365000000000000000000000000000000000060448201526064016105dc565b600083815260076020908152604080832080548690039055600582528083206001600160a01b038816808552908352818420868603905581518781529283018690529133917fc3d58168c5ae7397731d063d5bbf3d657854427343f4c083240f7aacaa2d0f62910160405180910390a482610c1a576040518281526000906001600160a01b038616907fddf252ad1be2c89b69c2b068fc378daa952ba7f163c4a11628f55a4df523b3ef9060200160405180910390a350505050565b833b15611476576040517ff23a6e610000000000000000000000000000000000000000000000000000000081526001600160a01b0385169063f23a6e61906119e5908990899088908890889060040161249d565b602060405180830381600087803b1580156119ff57600080fd5b505af1925050508015611a4d575060408051601f3d9081017fffffffffffffffffffffffffffffffffffffffffffffffffffffffffffffffe0168201909252611a4a918101906124e0565b60015b611a995760405162461bcd60e51b815260206004820152601360248201527f6e6f6e204552433131353552656365697665720000000000000000000000000060448201526064016105dc565b7fffffffff0000000000000000000000000000000000000000000000000000000081167ff23a6e610000000000000000000000000000000000000000000000000000000014611b2a5760405162461bcd60e51b815260206004820152601860248201527f4552433131353552656365697665722072656a6563746564000000000000000060448201526064016105dc565b50505050505050565b833b15611476576040517fbc197c810000000000000000000000000000000000000000000000000000000081526001600160a01b0385169063bc197c8190611b8790899089908890889088906004016124fd565b602060405180830381600087803b158015611ba157600080fd5b505af1925050508015611bef575060408051601f3d9081017fffffffffffffffffffffffffffffffffffffffffffffffffffffffffffffffe0168201909252611bec918101906124e0565b60015b611c3b5760405162461bcd60e51b815260206004820152601360248201527f6e6f6e204552433131353552656365697665720000000000000000000000000060448201526064016105dc565b7fffffffff0000000000000000000000000000000000000000000000000000000081167fbc197c810000000000000000000000000000000000000000000000000000000014611b2a5760405162461bcd60e51b815260206004820152601860248201527f4552433131353552656365697665722072656a6563746564000000000000000060448201526064016105dc565b60008281526007602052604081208054839290611cea908490612457565b909155505060008281526005602090815260408083206001600160a01b038716845290915281208054839290611d21908490612457565b9091555050505050565b80356001600160a01b0381168114611d4257600080fd5b919050565b60008060408385031215611d5a57600080fd5b611d6383611d2b565b946020939093013593505050565b7fffffffff000000000000000000000000000000000000000000000000000000008116811461103457600080fd5b600060208284031215611db157600080fd5b8135611dbc81611d71565b9392505050565b6000815180845260005b81811015611de957602081850181015186830182015201611dcd565b81811115611dfb576000602083870101525b50601f017fffffffffffffffffffffffffffffffffffffffffffffffffffffffffffffffe0169290920160200192915050565b602081526000611dbc6020830184611dc3565b600060208284031215611e5357600080fd5b5035919050565b600080600060608486031215611e6f57600080fd5b611e7884611d2b565b9250611e8660208501611d2b565b9150604084013590509250925092565b7f4e487b7100000000000000000000000000000000000000000000000000000000600052604160045260246000fd5b604051601f82017fffffffffffffffffffffffffffffffffffffffffffffffffffffffffffffffe016810167ffffffffffffffff81118282101715611f0c57611f0c611e96565b604052919050565b600067ffffffffffffffff821115611f2e57611f2e611e96565b5060051b60200190565b600082601f830112611f4957600080fd5b81356020611f5e611f5983611f14565b611ec5565b82815260059290921b84018101918181019086841115611f7d57600080fd5b8286015b84811015611f985780358352918301918301611f81565b509695505050505050565b600082601f830112611fb457600080fd5b813567ffffffffffffffff811115611fce57611fce611e96565b611fff60207fffffffffffffffffffffffffffffffffffffffffffffffffffffffffffffffe0601f84011601611ec5565b81815284602083860101111561201457600080fd5b816020850160208301376000918101602001919091529392505050565b600080600080600060a0868803121561204957600080fd5b61205286611d2b565b945061206060208701611d2b565b9350604086013567ffffffffffffffff8082111561207d57600080fd5b61208989838a01611f38565b9450606088013591508082111561209f57600080fd5b6120ab89838a01611f38565b935060808801359150808211156120c157600080fd5b506120ce88828901611fa3565b9150509295509295909350565b600080604083850312156120ee57600080fd5b823567ffffffffffffffff8082111561210657600080fd5b818501915085601f83011261211a57600080fd5b8135602061212a611f5983611f14565b82815260059290921b8401810191818101908984111561214957600080fd5b948201945b8386101561216e5761215f86611d2b565b8252948201949082019061214e565b9650508601359250508082111561218457600080fd5b5061219185828601611f38565b9150509250929050565b600081518084526020808501945080840160005b838110156121cb578151875295820195908201906001016121af565b509495945050505050565b602081526000611dbc602083018461219b565b6000602082840312156121fb57600080fd5b611dbc82611d2b565b6000806000806080858703121561221a57600080fd5b61222385611d2b565b93506020850135925060408501359150606085013567ffffffffffffffff81111561224d57600080fd5b61225987828801611fa3565b91505092959194509250565b6000806040838503121561227857600080fd5b61228183611d2b565b91506020830135801515811461229657600080fd5b809150509250929050565b600080604083850312156122b457600080fd5b6122bd83611d2b565b91506122cb60208401611d2b565b90509250929050565b600080600080600060a086880312156122ec57600080fd5b6122f586611d2b565b945061230360208701611d2b565b93506040860135925060608601359150608086013567ffffffffffffffff81111561232d57600080fd5b6120ce88828901611fa3565b60008060006060848603121561234e57600080fd5b61235784611d2b565b95602085013595506040909401359392505050565b600181811c9082168061238057607f821691505b602082108114156123ba577f4e487b7100000000000000000000000000000000000000000000000000000000600052602260045260246000fd5b50919050565b7f4e487b7100000000000000000000000000000000000000000000000000000000600052603260045260246000fd5b7f4e487b7100000000000000000000000000000000000000000000000000000000600052601160045260246000fd5b60007fffffffffffffffffffffffffffffffffffffffffffffffffffffffffffffffff821415612450576124506123ef565b5060010190565b6000821982111561246a5761246a6123ef565b500190565b604081526000612482604083018561219b565b8281036020840152612494818561219b565b95945050505050565b60006001600160a01b03808816835280871660208401525084604083015283606083015260a060808301526124d560a0830184611dc3565b979650505050505050565b6000602082840312156124f257600080fd5b8151611dbc81611d71565b60006001600160a01b03808816835280871660208401525060a0604083015261252960a083018661219b565b828103606084015261253b818661219b565b9050828103608084015261254f8185611dc3565b9897505050505050505056fea2646970667358221220c1564857efd6c498d8140fc013ca6ea671ca545d8c2de8ccbf8c057e2478bf3764736f6c6343000809003368747470733a2f2f7777772e6d61686a2e7669702f6d6574612f7b69647d2e6a736f6e6e1540171b6c0c960b71a7020d9f60077f6af931a8bbf590da0223dacf75c7af",
  "linkReferences": {},
  "deployedLinkReferences": {}
}